:020000040800F2
:1000000000500020DD200008E91F0008EB1F000859
:10001000ED1F0008EF1F0008F11F0008000000009E
:10002000000000000000000000000000F31F0008B6
:10003000F51F000800000000F71F0008F91F000866
:100040002521000825210008252100082521000878
:100050002521000825210008252100082521000868
:100060002521000825210008252100082521000858
:100070002521000825210008252100082521000848
:100080002521000825210008252100082521000838
:100090000D20000825210008252100082521000841
:1000A0002521000825210008252100082521000818
:1000B0002521000825210008252100082521000808
:1000C00025210008252100082521000825210008F8
:1000D00025210008252100082521000825210008E8
:1000E0002521000825210008252100080000000026
:1000F0000000000000000000000000000000000000
:0C01000000000000000000005FF808F1A3
:100110004FF0FF0C1CEAD0521EBF1CEAD15392EAEA
:100120000C0F93EA0C0F6FD01A4480EA010C4002C6
:1001300018BF5FEA41211ED04FF0006343EA501020
:1001400043EA5111A0FB01310CF00040B1F5000F62
:100150003EBF490041EAD3715B0040EA010062F111
:100160007F02FD2A1DD8B3F1004F40EBC25008BFFB
:1001700020F00100704790F0000F0CF0004C08BF19
:1001800049024CEA502040EA51207F3AC2BFD2F1E6
:10019000FF0340EAC250704740F400004FF00003F4
:1001A000013A5DDC12F1190FDCBF00F0004070472E
:1001B000C2F10002410021FA02F1C2F1200200FA6C
:1001C00002FC5FEA310040F1000053EA4C0308BF33
:1001D00020EADC70704792F0000F00F0004C02BF84
:1001E000400010F4000F013AF9D040EA0C0093F0FF
:1001F000000F01F0004C02BF490011F4000F013B59
:10020000F9D041EA0C018FE70CEAD15392EA0C0FC6
:1002100018BF93EA0C0F0AD030F0004C18BF31F031
:10022000004CD8D180EA010000F00040704790F007
:10023000000F17BF90F0004F084691F0000F91F0AB
:10024000004F14D092EA0C0F01D142020FD193EA71
:100250000C0F03D14B0218BF084608D180EA0100F9
:1002600000F0004040F0FE4040F40000704740F0D5
:10027000FE4040F44000704781F0004102E000BFC2
:1002800083F0004330B54FEA41044FEA430594EA56
:10029000050F08BF90EA020F1FBF54EA000C55EA91
:1002A000020C7FEA645C7FEA655C00F0E2804FEA62
:1002B0005454D4EB5555B8BF6D420CDD2C4480EA44
:1002C000020281EA030382EA000083EA010180EA74
:1002D000020281EA0303362D88BF30BD11F0004FC2
:1002E0004FEA01314FF4801C4CEA113102D04042F8
:1002F00061EB410113F0004F4FEA03334CEA133333
:1003000002D0524263EB430394EA050F00F0A7804A
:10031000A4F10104D5F1200E0DDB02FA0EFC22FA45
:1003200005F2801841F1000103FA0EF2801843FA39
:1003300005F359410EE0A5F120050EF1200E012A2A
:1003400003FA0EFC28BF4CF0020C43FA05F3C01868
:1003500051EBE37101F0004507D54FF0000EDCF1E1
:10036000000C7EEB00006EEB0101B1F5801F1BD38A
:10037000B1F5001F0CD349085FEA30004FEA3C0C8E
:1003800004F101044FEA445212F5800F80F09A8084
:10039000BCF1004F08BF5FEA500C50F1000041EB88
:1003A000045141EA050130BD5FEA4C0C404141EB8C
:1003B0000101013C28BFB1F5801FE9D291F0000F87
:1003C00004BF01460020B1FA81F308BF2033A3F136
:1003D0000B03B3F120020CDA0C3208DD02F1140C2D
:1003E000C2F10C0201FA0CF021FA02F10CE002F168
:1003F0001402D8BFC2F1200C01FA02F120FA0CFC61
:10040000DCBF41EA0C019040E41AA2BF01EB0451A9
:10041000294330BD6FEA04041F3C1CDA0C340EDCA7
:1004200004F11404C4F1200220FA04F001FA02F3EA
:1004300040EA030021FA04F345EA030130BDC4F1A8
:100440000C04C4F1200220FA02F001FA04F340EA9D
:100450000300294630BD21FA04F0294630BD94F04E
:10046000000F83F4801306BF81F480110134013D35
:100470004EE77FEA645C18BF7FEA655C29D094EAA6
:10048000050F08BF90EA020F05D054EA000C04BF24
:100490001946104630BD91EA030F1EBF002100200F
:1004A00030BD5FEA545C05D14000494128BF41F0AE
:1004B000004130BD14F580043CBF01F5801130BD12
:1004C00001F0004545F0FE4141F470014FF000009D
:1004D00030BD7FEA645C1ABF194610467FEA655C4E
:1004E0001CBF0B46024650EA013406BF52EA0335F0
:1004F00091EA030F41F4002130BD00BF90F0000FDE
:1005000004BF0021704730B54FF4806404F1320419
:100510004FF000054FF0000150E700BF90F0000FD2
:1005200004BF0021704730B54FF4806404F13204F9
:1005300010F0004548BF40424FF000013EE700BFC9
:1005400042004FEAE2014FEA31014FEA02701FBF59
:1005500012F07F4393F07F4F81F06051704732F08B
:100560007F4208BF704793F07F4F04BF41F40021E2
:10057000704730B54FF4607401F0004521F0004140
:100580001CE700BF50EA010208BF704730B54FF0CA
:1005900000050AE050EA010208BF704730B511F0CB
:1005A000004502D5404261EB41014FF4806404F103
:1005B00032045FEA915C3FF4D8AE4FF003025FEA89
:1005C000DC0C18BF03325FEADC0C18BF033202EB0D
:1005D000DC02C2F1200300FA03FC20FA02F001FA67
:1005E00003FE40EA0E0021FA02F11444BDE600BF0A
:1005F00080F0004002E000BF81F0004142001FBFD8
:100600005FEA410392EA030F7FEA226C7FEA236CE0
:100610006AD04FEA1262D2EB1363C1BFD2184140D5
:1006200048404140B8BF5B42192B88BF704710F06B
:10063000004F40F4000020F07F4018BF404211F00E
:10064000004F41F4000121F07F4118BF494292EA76
:10065000030F3FD0A2F1010241FA03FC10EB0C00A2
:10066000C3F1200301FA03F100F0004302D549422F
:1006700060EB4000B0F5000F13D3B0F1807F06D3DC
:1006800040084FEA310102F10102FE2A51D2B1F1D4
:10069000004F40EBC25008BF20F0010040EA0300C9
:1006A0007047490040EB0000013A28BFB0F5000F49
:1006B000EDD2B0FA80FCACF1080CB2EB0C0200FAFF
:1006C0000CF0AABF00EBC25052421843BCBFD0404E
:1006D0001843704792F0000F81F4000106BF80F4C8
:1006E00000000132013BB5E74FEA41037FEA226C8B
:1006F00018BF7FEA236C21D092EA030F04D092F056
:10070000000F08BF0846704790EA010F1CBF002089
:10071000704712F07F4F04D1400028BF40F00040E6
:10072000704712F100723CBF00F50000704700F006
:10073000004343F0FE4040F4000070477FEA22622D
:1007400016BF08467FEA23630146420206BF5FEAFE
:10075000412390EA010F40F4800070474FF00003FE
:1007600004E000BF10F0004348BF40425FEA000CC5
:1007700008BF704743F0964301464FF000001CE06D
:1007800050EA010208BF70474FF000030AE000BFC3
:1007900050EA010208BF704711F0004302D5404201
:1007A00061EB41015FEA010C02BF84460146002073
:1007B00043F0B64308BFA3F18053A3F50003BCFA8E
:1007C0008CF2083AA3EBC25310DB01FA02FC63443B
:1007D00000FA02FCC2F12002BCF1004F20FA02F242
:1007E00043EB020008BF20F00100704702F1200235
:1007F00001FA02FCC2F1200250EA4C0021FA02F296
:1008000043EB020008BF20EADC70704780EA010C6D
:100810001CF0030F37D110F0030C20F0030021F07F
:10082000030150F8042B08BF51F8043B0ED08CF0A4
:10083000030C6FF07F434FEACC0C23FA0CFC51F809
:10084000043B42EA0C0243EA0C0300BFA2F1013C64
:100850009A4201BF2CEA020C1CF0803F50F8042B96
:1008600051F8043BF2D04FEA02604FEA122201280D
:1008700028BFB0EB036F08BF1B0AF4D003F0FF03DF
:10088000000EC01A704710F0030F0AD010F8012BA9
:1008900011F8013B012A28BF9A42F4D0A2EB0300D1
:1008A00070474DF8045D50F8042B01F0030521F06A
:1008B000030151F8043B022D26D04DD822F07F458C
:1008C000B5EB132FA2F1013C2CEA020C0DD11CF068
:1008D000803C08BF51F8043B0AD185EA0205B5EB1C
:1008E000036F0CD150F8042BE8E74FEA13235BE0C9
:1008F0003CF07F4C54D10B784FEA126554E04FEA3C
:10090000126503F0FF034FE04FEA0245A2F1013CFC
:100910004FEA15452CEA020CB5EB134F18D11CF029
:10092000803C08BF51F8043B07D185EA0205B5EBCE
:10093000034F09D150F8042BE6E75FEA0C4C2FD1A6
:100940000B884FEA12452FE04FEA03434FEA124566
:100950004FEA134328E000BF02F0FF05B5EB136F29
:10096000A2F1013C2CEA020C0DD11CF0803C08BF26
:1009700051F8043B0AD185EA0205B5EB032F0AD1F1
:1009800050F8042BE8E74FEA13630DE012F0FF0F75
:1009900006D051F8043B4FEA122523F07F4303E0D1
:1009A0004FF0000020BC704705F0FF0203F0FF008D
:1009B000012828BF904204BF2D0A1B0AF4D0A2EBE5
:1009C000000020BC704700BF844641EA000313F0DA
:1009D000030349D1403A23D30B6803604B6843605B
:1009E0008B688360CB68C3600B6903614B694361AB
:1009F0008B698361CB69C3610B6A03624B6A436293
:100A00008B6A8362CB6AC3620B6B03634B6B43637A
:100A10008B6B8363CB6BC36340304031403ADBD296
:100A200030320BD30B6803604B6843608B68836084
:100A3000CB68C36010301031103AF3D20C3205D3BA
:100A400051F8043B40F8043B043AF9D2043208D090
:100A5000D2071CBF11F8013B00F8013B01D30B8802
:100A600003806046704700BF082A13D38B07B1D0BC
:100A700010F00303AED0C3F10403D21ADB071CBF8E
:100A800011F8013B00F8013BA4D331F8023B20F8F8
:100A9000023B9FE7043AD9D3013A11F8013B00F831
:100AA000013BF9D20B7803704B7843708B788370DD
:100AB0006046704770B54FF0FF0C4CF4E06C1CEAD8
:100AC00011541DBF1CEA135594EA0C0F95EA0C0F44
:100AD00000F0DEF82C4481EA030621EA4C5123EAB7
:100AE0004C5350EA013518BF52EA033541F48011E6
:100AF00043F4801338D0A0FB02CE4FF00005E1FB99
:100B000002E506F00042E0FB03E54FF00006E1FBE2
:100B100003569CF0000F18BF4EF0010EA4F1FF0425
:100B2000B6F5007F64F5407404D25FEA4E0E6D4165
:100B300046EB060642EAC62141EA55514FEAC52076
:100B400040EA5E504FEACE2EB4F1FD0C88BFBCF5F2
:100B5000E06F1ED8BEF1004F08BF5FEA500E50F1A3
:100B6000000041EB045170BD06F0004646EA010169
:100B700040EA020081EA0301B4EB5C04C2BFD4EB9B
:100B80000C0541EA045170BD41F480114FF0000E94
:100B9000013C00F3AB8014F1360FDEBF002001F002
:100BA000004170BDC4F10004203C35DA0C341BDC7C
:100BB00004F11404C4F1200500FA05F320FA04F04E
:100BC00001FA05F240EA020001F0004221F0004182
:100BD00010EBD37021FA04F642EB06015EEA430EF5
:100BE00008BF20EAD37070BDC4F10C04C4F1200525
:100BF00000FA04F320FA05F001FA04F240EA0200D8
:100C000001F0004110EBD37041F100015EEA430EA8
:100C100008BF20EAD37070BDC4F1200500FA05F2C8
:100C20004EEA020E20FA04F301FA05F243EA020347
:100C300021FA04F001F0004121FA04F220EA020056
:100C400000EBD3705EEA430E08BF20EAD37070BD9C
:100C500094F0000F0FD101F00046400041EB01017C
:100C600011F4801F08BF013CF7D041EA060195F05E
:100C7000000F18BF704703F00046520043EB030318
:100C800013F4801F08BF013DF7D043EA0603704705
:100C900094EA0C0F0CEA135518BF95EA0C0F0CD010
:100CA00050EA410618BF52EA4306D1D181EA030156
:100CB00001F000414FF0000070BD50EA410606BF50
:100CC0001046194652EA430619D094EA0C0F02D195
:100CD00050EA013613D195EA0C0F05D152EA0336DA
:100CE0001CBF104619460AD181EA030101F00041F8
:100CF00041F0FE4141F470014FF0000070BD41F041
:100D0000FE4141F4780170BD70B54FF0FF0C4CF41A
:100D1000E06C1CEA11541DBF1CEA135594EA0C0F39
:100D200095EA0C0F00F0A7F8A4EB050481EA030E86
:100D300052EA03354FEA013100F088804FEA03336D
:100D40004FF0805545EA131343EA12634FEA02223B
:100D500045EA111545EA10654FEA00260EF00041FC
:100D60009D4208BF964244F1FD0404F5407402D24E
:100D70005B084FEA3202B61A65EB03055B084FEADF
:100D800032024FF480104FF4002CB6EB020E75EBDC
:100D9000030E22BFB61A754640EA0C005B084FEA04
:100DA0003202B6EB020E75EB030E22BFB61A754681
:100DB00040EA5C005B084FEA3202B6EB020E75EBCC
:100DC000030E22BFB61A754640EA9C005B084FEA44
:100DD0003202B6EB020E75EB030E22BFB61A754651
:100DE00040EADC0055EA060E18D04FEA051545EA40
:100DF00016754FEA06164FEAC30343EA52734FEAE9
:100E0000C2025FEA1C1CC0D111F4801F0BD141EA61
:100E100000014FF000004FF0004CB6E711F4801FC6
:100E200004BF01430020B4F1FD0C88BFBCF5E06FA6
:100E30003FF6AFAEB5EB030C04BFB6EB020C5FEAB6
:100E4000500C50F1000041EB045170BD0EF0004E0B
:100E50004EEA113114EB5C04C2BFD4EB0C0541EA3D
:100E6000045170BD41F480114FF0000E013C90E63A
:100E700045EA060E8DE60CEA135594EA0C0F08BFFE
:100E800095EA0C0F3FF43BAF94EA0C0F0AD150EAFD
:100E900001347FF434AF95EA0C0F7FF425AF104690
:100EA00019462CE795EA0C0F06D152EA03353FF4B8
:100EB000FDAE1046194622E750EA410618BF52EA35
:100EC00043067FF4C5AE50EA41047FF40DAF52EA09
:100ED00043057FF4EBAE12E74FF0FF3C06E000BFA6
:100EE0004FF0010C02E000BF4FF0010C4DF804CDB3
:100EF0004FEA410C7FEA6C5C4FEA430C18BF7FEA73
:100F00006C5C1BD001B050EA410C0CBF52EA430CA0
:100F100091EA030F02BF90EA020F0020704710F120
:100F2000000F91EA030F58BF994208BF90422CBFAF
:100F3000D8176FEAE37040F0010070474FEA410CA8
:100F40007FEA6C5C02D150EA013C07D14FEA430CC6
:100F50007FEA6C5CD6D152EA033CD3D05DF8040B37
:100F6000704700BF8446104662468C461946634669
:100F700000E000BF01B5FFF7B7FF002848BF10F140
:100F8000000F01BD4DF808EDFFF7F4FF0CBF012085
:100F900000205DF808FB00BF4DF808EDFFF7EAFF01
:100FA00034BF012000205DF808FB00BF4DF808EDBC
:100FB000FFF7E0FF94BF012000205DF808FB00BFB1
:100FC0004DF808EDFFF7CEFF94BF012000205DF83B
:100FD00008FB00BF4DF808EDFFF7C4FF34BF012048
:100FE00000205DF808FB00BF4FEA410C7FEA6C5C13
:100FF00002D150EA013C0AD14FEA430C7FEA6C5C13
:1010000002D152EA033C02D14FF0000070474FF08A
:10101000010070474FEA410212F5001215D211D5B6
:101020006FF47873B3EB625212D94FEAC12343F0E5
:10103000004343EA505311F0004F23FA02F018BF67
:10104000404270474FF00000704750EA013005D130
:1010500011F0004008BF6FF0004070474FF00000F3
:10106000704700BF0348044B834202D0034B03B1D7
:1010700018477047100700201007002000000000EC
:101080000548064B1B1AD90F01EBA301491002D0EA
:10109000034B03B1184770471007002010070020CA
:1010A0000000000010B5064C237843B9FFF7DAFFC3
:1010B000044B13B10448AFF300800123237010BD2B
:1010C00010070020000000004CB2000808B5054BD6
:1010D0001BB105490548AFF30080BDE80840FFF7A4
:1010E000CFBF00BF00000000140700204CB2000872
:1010F00008B500224FF48051014801F0C1FD08BD40
:10110000000C014008B501224FF48051014801F064
:10111000B7FD08BD000C014000B583B04FF0FF33B0
:1011200001220DF10701044802F0E7FB9DF80700DA
:1011300003B05DF804FB00BF5C08002000B583B07D
:101140008DF807004FF0FF3301220DF1070103482E
:1011500002F0D5F903B05DF804FB00BF5C08002085
:101160002DE9F04389B00024049405940694079473
:101170002F4B9A6942F010029A619A6902F01002AC
:101180000092009A9A6942F020029A619A6902F0EC
:1011900020020192019A9A6942F004029A619A69C6
:1011A00002F004020292029A9A6942F008029A61DD
:1011B0009B6903F008030393039BDFF878902246B2
:1011C0004FF40051484601F05BFDDFF86C800122CE
:1011D0004FF49971404601F053FD184F22464FF4E9
:1011E0008051384601F04CFD4FF400530493012622
:1011F000059606940225079504A9484601F032FC9D
:101200004FF49973049305960694079504A94046F4
:1012100001F028FC4FF4805304930596069407953B
:1012200004A9384601F01EFC09B0BDE8F08300BFF8
:10123000001002400010014000080140000C014075
:1012400010B50B4C204602F0C1FE204602F0EAFE2B
:101250000121204602F02CFE204602F0B7FE204677
:1012600002F0E0FE204602F055FE606910BD00BFAE
:10127000B407002010B5044604F044FBC2B2572363
:1012800002FB03F3054981FB03139B0905339BB262
:101290002146034802F0E2FC10BD00BFD34D6210AE
:1012A0001408002038B501382B4B53F820302B4A56
:1012B00013602B4A13602B4B06221A702A4804F045
:1012C000C3FA2A4B00221A80294B1B7823BB254BDB
:1012D0001C78ECB1254BB3F90030002BF4DC254829
:1012E000FFF7C8FF204C2046FFF7C4FF2248FFF756
:1012F000C1FF224B22461A49214801F0CDF81B4B71
:101300004FF4FA621A80174A1378013B1370DBE737
:101310001C48FFF7AFFF1DE01B48FFF7ABFF124C67
:10132000002525606560194B1B6823801B0CA3708A
:101330001048FFF79FFF2046FFF79CFF0E48FFF77E
:1013400099FF0E4B224606490D4801F0A5F8084BBF
:101350001D700124204638BD0000002064070020D5
:101360008007002068070020700700206A0700201F
:101370006907002080B2000890B200086C070020C6
:10138000B408002070B200089CB20008A4B20008A3
:1013900038B5044604F0B6FA82B22146002003F0C4
:1013A000EBF90546204604F0ADFA03B29D4203D0A6
:1013B0000648FFF75FFF38BD0548FFF75BFF204693
:1013C000FFF758FF0348FFF755FFF4E7BCB20008EA
:1013D000A8B200087CB2000830B583B09F48FFF780
:1013E00049FF002341F288320121184603F096F8A4
:1013F00058B99B48FFF73EFF002003F03FF9012852
:1014000008D09848FFF736FF02E09748FFF732FF11
:1014100003B030BD9548FFF72DFF4FF4427002F046
:10142000ADFE142808D1C82000F0C8FE4FF40051CA
:101430008F4801F02BFCF0E78E48FFF71BFF4FF4BD
:10144000427002F09BFE172800F08E818A48FFF759
:1014500011FFDDE789490A78501C0870884941F876
:1014600022308849002004F009F9874B1860864B28
:101470001B68002BEED10A228449814B186803F0C7
:10148000EFFEC4B2824B1C70002C40F0B9807C4B44
:101490005C6880492046FFF7B9F900283CD07E49B6
:1014A0002046FFF7B3F900284ED07C492046FFF7CD
:1014B000ADF9002854D07A492046FFF7A7F9002853
:1014C0005AD078492046FFF7A1F9002860D0764924
:1014D0002046FFF79BF9002866D074492046FFF7A5
:1014E00095F900286CD072492046FFF78FF9002843
:1014F00072D070492046FFF789F9002879D16E48EB
:10150000FFF7B8FE00224FF480716C4801F0B8FB81
:101510006B48FFF73DFF14E16A48FFF7ABFEFFF7AA
:101520008FFE694B1860694CFFF70AF8CDE900019E
:101530000223674A0821204603F090FF654B18708C
:101540002046FFF725FFFCE06348FFF793FE0122EA
:1015500002215A4801F094FB5948FFF719FFF0E0C7
:101560005E48FFF787FE00220221544801F088FB05
:101570005348FFF70DFFE4E05948FFF77BFE0122D7
:1015800010214E4801F07CFB4D48FFF701FFD8E0E9
:101590005448FFF76FFE00221021484801F070FB0D
:1015A0004748FFF7F5FECCE04F48FFF763FE012206
:1015B0002021424801F064FB4148FFF7E9FEC0E00A
:1015C0004A48FFF757FE002220213C4801F058FB13
:1015D0003B48FFF7DDFEB4E04548FFF74BFE012234
:1015E0004FF48071354801F04BFB3548FFF7D0FED2
:1015F000A7E04048FFF7CCFE3F48FFF73BFEA0E0E6
:10160000631EDBB2062B00F24D821D4B5D68214943
:101610002846FFF7FBF8002878D038492846FFF71E
:10162000F5F8002840F0CA80072C00F0B980344853
:10163000FFF720FE124C2068FFF71CFE3148FFF731
:1016400019FE6168124B1878FFF72CFE002800F095
:10165000A3802D48FFF79CFE6CE000BFE0B20008BD
:1016600008B3000824B30008F4B200083CB3000833
:10167000001001406CB3000880B300084807002048
:101680005007002098B300084407002034070020CA
:10169000400700209CB30008D4B30008F4B300084E
:1016A00014B4000834B4000854B4000874B400083A
:1016B00094B40008B4B40008BCB4000800080140A9
:1016C000A4B20008A4B300083C0700202C070020A7
:1016D000CCB3000838070020DCB30008FCB30008D6
:1016E0001CB400083CB400085CB400087CB40008DA
:1016F0009CB40008D4B40008E4B4000838B500086D
:1017000040B500087CB2000878070020A348FFF726
:10171000B1FDA34C2068FFF7ADFDA248FFF7AAFD7D
:101720006168A14B1878FFF7BDFD002830D09F48B5
:10173000FFF72EFE9E4A0023136053609B4A1360FE
:101740005360974A0023136053609A4A13709A4A71
:101750001360954A1370994A1360994A00231360E5
:1017600053601381974A136009229549002003F0C2
:1017700095F8944B186010F1070F00F09A8100283B
:10178000EBDD91498E4803F079FF8B4B18606EE6D4
:101790008E48FFF7FDFDCDE78C48FFF7F9FDC9E75F
:1017A0008B48FFF7F5FD8B48FFF764FD7C4B18680D
:1017B000FFF760FD7B48FFF75DFDBBE786492846E4
:1017C000FFF724F838BB072C17D08448FFF752FDE9
:1017D000734C2068FFF74EFD7248FFF74BFD6168C0
:1017E000714B1878FFF75EFD18B17048FFF7D0FD18
:1017F000A0E77648FFF7CCFD9CE77548FFF7C8FDEA
:101800007448FFF737FD664B1868FFF733FD6548EE
:10181000FFF730FD8EE7072C40F0368170492846EF
:10182000FEF7F4FF002843D06E492846FEF7EEFF8E
:10183000002855D06C492846FEF7E8FF002867D0FD
:101840006A492846FEF7E2FF002879D06849284611
:10185000FEF7DCFF002800F08B8066492846FEF783
:10186000D5FF002800F0DC8063492846FEF7CEFF54
:10187000002800F0ED8061492846FEF7C7FF0028E8
:101880007FF458AF5E48FFF7F5FC454C2068FFF742
:10189000F1FC4448FFF7EEFC6168434B1878FFF712
:1018A00001FD002800F0EC804048FFF771FD41E7A2
:1018B0005448FFF7DFFC3A4C2068FFF7DBFC39485F
:1018C000FFF7D8FC6168384B1878FFF7EBFC18B1CC
:1018D0003648FFF75DFD2DE73C48FFF759FD29E746
:1018E0004948FFF7C7FC2E4C2068FFF7C3FC2D4882
:1018F000FFF7C0FC61682C4B1878FFF7D3FC18B1D8
:101900002A48FFF745FD15E73048FFF741FD11E78D
:101910003E48FFF7AFFC224C2068FFF7ABFC2148A4
:10192000FFF7A8FC6168204B1878FFF7BBFC18B1E3
:101930001E48FFF72DFDFDE62448FFF729FDF9E6D7
:101940003348FFF797FC164C2068FFF793FC1548C7
:10195000FFF790FC6168144B1878FFF7A3FC18B1EF
:101960001248FFF715FDE5E61848FFF711FDE1E61F
:101970002848FFF77FFC0A4C2068FFF77BFC0948EA
:10198000FFF778FC6168084B1878FFF78BFC00289C
:1019900042D00648FFF7FCFCCCE600BF08B50008C3
:1019A000500700207CB20008400700207807002084
:1019B000700700204807002044070020340700205B
:1019C000580700204C07002098B3000830B50008E5
:1019D000D4B4000860B500088CB5000894B50008C0
:1019E000F4B30008D4B3000834B4000814B40008F9
:1019F00074B4000854B40008B4B4000894B40008E7
:101A000098B60008B8B50008D8B50008F8B50008C1
:101A100018B6000838B600082B48FFF7B9FC89E66D
:101A20002A48FFF727FC2A4C2068FFF723FC2948A7
:101A3000FFF720FC6168284B1878FFF733FC18B1DA
:101A40002648FFF7A5FC75E61F48FFF7A1FC71E6E5
:101A50002348FFF70FFC1E4C2068FFF70BFC1D48C6
:101A6000FFF708FC61681C4B1878FFF71BFC18B1E6
:101A70001A48FFF78DFC5DE61348FFF789FC59E62D
:101A80001148FFF785FC55E61648FFF781FC16481C
:101A9000FFF7F0FB0E4B1868FFF7ECFB0D48FFF764
:101AA000E9FB47E61148FFF773FC1148FFF7E2FB3B
:101AB00047E61048FFF7DEFB002002F015FE00208D
:101AC00002F0F0FCA4E400BF30B5000858B60008EE
:101AD000500700207CB20008400700207807002053
:101AE00078B60008D4B4000860B50008B8B600089D
:101AF000C4B60008D4B6000872B6FEE708B50A48B6
:101B00000A4B03604FF4E133436000238360C360FA
:101B100003610C2242618361C36102F039F800B9AC
:101B200008BDFFF7E9FF00BF14080020003801409E
:101B300010B582B01A481B4B03604FF4E133436089
:101B400000238360C36003610C2242618361C3612F
:101B500002F04EF810BB144C1149204602F070FA06
:101B6000204602F033FA204602F042FA204602F004
:101B7000D1F9E37B8DF80430A37B8DF805307F230A
:101B80008DF80630204602F021FA204602F04AFA8B
:101B900001A9204602F008FA02B010BDFFF7ACFF21
:101BA000CC07002000440040B407002000B589B0F5
:101BB0002548264B03604FF4827343600023836003
:101BC000C360036143614FF400728261C3610362C9
:101BD000436283620A23C36201F036FC002831D1DC
:101BE0001B491C4802F0D4FE1B491C4802F0E2FECF
:101BF0004FF00233079307A9084602F02FFF002396
:101C000001930293039304930593CDF81730144B7B
:101C100093E803000190ADF80810124B1868CDF856
:101C20000A00114B1868CDF80E00104B1868CDF85B
:101C3000120001A802F058FF01A802F083FF09B0CA
:101C40005DF804FBFFF758FF5C08002000380040F7
:101C500005110008F11000083D11000819110008D5
:101C600068B20008E8B60008F0B60008F4B600084C
:101C700010B58AB02248234B036009234360002338
:101C80008360C3604FF4403202614FF4001242613E
:101C9000037643768376C3760377437700F0A2FA20
:101CA00038BB00230593069304930093019302939A
:101CB00003930123079308930E230993104C69465D
:101CC000204600F035FB204600F0B8FB98B9022111
:101CD0000B4800F00BFD80B90B4B08221A61002263
:101CE0009A60DA604FF4007119605A601A750AB090
:101CF00010BDFFF701FFFFF7FFFEFFF7FDFE00BF7E
:101D0000B4080020006400408007002000B591B0B6
:101D10002822002106A803F02BFC00230193029344
:101D2000039304930593012206924FF480330793A3
:101D30000A9202220D920E934FF4E0130F9306A81D
:101D400000F0C4FF80B90F23019302210291002308
:101D500003934FF480620492059301A801F0E8F91F
:101D600020B911B05DF804FBFFF7C6FEFFF7C4FE13
:101D700008B500F0FFF9FFF7C9FFFFF7F1F9FFF72A
:101D8000BDFEFFF7D5FEFFF711FFFFF771FFFFF76D
:101D900023FBFCE708B50E4B0E4A002100F0F1FBD7
:101DA00060B90C4B1A680C4B1B689A4208D00B4860
:101DB000FFF760FA0A4B00221A7008BDFFF79CFE7D
:101DC000074B01221A700748FFF754FAF5E700BFE6
:101DD00078070020980700206407002008B7000853
:101DE00069070020FCB6000882B00E4B9A6942F0E9
:101DF00001029A619A6902F001020092009ADA697E
:101E000042F08052DA61DB6903F080530193019B59
:101E1000054A536823F0E06343F00073536002B057
:101E2000704700BF001002400000014010B586B0AE
:101E30000023029303930493059302681A4B9A427A
:101E400001D006B010BD03F5D633DA6942F0007256
:101E5000DA61DA6902F000720092009A9A6942F03F
:101E600004029A619B6903F004030193019B4FF400
:101E7000006302930D4C02A9204600F0F3FD4FF4DD
:101E800080530293022303930323059302A9204660
:101E900000F0E8FD00221146142000F0B1FD1420EE
:101EA00000F0BEFDCDE700BF006400400008014027
:101EB00010B586B000230293039304930593026840
:101EC000174B9A4201D006B010BD03F5EC33DA6926
:101ED00042F48042DA61DA6902F480420092009AA8
:101EE0009A6942F008029A619B6903F00803019322
:101EF000019B4FF420430293022303930323059392
:101F0000084C02A9204600F0ADFD4FF48043029337
:101F100000230393049302A9204600F0A3FDD2E717
:101F200000380040000C014010B588B00023049335
:101F30000593069307930368274A934204D0274AE0
:101F400093422BD008B010BD254B9A6942F48042D1
:101F50009A619A6902F480420092009A9A6942F06A
:101F600004029A619B6903F004030193019B4FF4FF
:101F7000007304930223059303230793194C04A9C8
:101F8000204600F06FFD4FF4806304930023059317
:101F9000069304A9204600F065FDD3E7104BDA69EB
:101FA00042F40032DA61DA6902F400320292029AF3
:101FB0009A6942F004029A619B6903F00403039357
:101FC000039B04230493122305930323079304A97B
:101FD000044800F047FDB5E70038014000440040E8
:101FE0000010024000080140FEE7FEE7FEE7FEE7C2
:101FF000FEE770477047704708B500F0CDF8024A19
:102000001388013B138008BD6A07002008B5024809
:1020100000F08AFB08BD00BFB40800200120704713
:1020200008B503F0CDFB162303604FF0FF3008BD69
:1020300008B54FF0FF31FFF7F3FFFEE770B50C4630
:102040001646002506E0AFF30080214601F8010B9B
:1020500001350C46B542F6DB304670BD70B50C4616
:102060001646002504E014F8010BAFF3008001359B
:10207000B542F8DB304670BD4FF0FF3070474FF48B
:1020800000534B60002070470120704700207047CC
:1020900010B503460C4A0D490D48006840B10C4884
:1020A00000680344521A934206D8094A136010BDCF
:1020B0000748084C0460F2E703F082FB0C2303603E
:1020C0004FF0FF30F3E700BF005000200004000095
:1020D000DC080020200C002070470000FFF7FCFF08
:1020E0000B480C490C4A002302E0D458C450043376
:1020F000C4188C42F9D3094A094C002301E013604B
:102100000432A242FBD303F061FBFFF731FE7047BC
:10211000000000201007002074BB000810070020FA
:102120001C0C0020FEE7000010B504460E4B1A7888
:102130004FF47A73B3FBF2F30C4A1068B0FBF3F080
:1021400000F07CFC68B90F2C01D901200AE00022C4
:1021500021464FF0FF3000F053FC054B1C6000207F
:1021600000E0012010BD00BF24000020200000205E
:102170002800002008B5074A136843F010031360D5
:10218000032000F02BFC0F20FFF7CEFFFFF72CFE03
:10219000002008BD00200240034A1168034B1B7851
:1021A0000B441360704700BFE008002024000020AB
:1021B000014B1868704700BFE008002038B504469E
:1021C000FFF7F6FF0546B4F1FF3F02D0044B1B7842
:1021D0001C44FFF7EDFF401BA042FAD338BD00BFFF
:1021E00024000020002800F0A18038B5044690F8B3
:1021F0002030D3B12268136843F001031360FFF766
:10220000D7FF054623685A6812F0010F10D1FFF777
:10221000CFFF401B0A28F5D9636A43F40033636299
:10222000052384F82030012038BDFFF7FFFDE1E7EA
:102230001A6822F002021A60FFF7BAFF0546236807
:102240005A6812F0020F0DD0FFF7B2FF401B0A28A8
:10225000F5D9636A43F400336362052384F82030C0
:102260000120E1E7227E012A3DD01A6822F0800297
:102270001A60637E012B3BD02268136823F0400371
:102280001360A37E012B39D02268136823F020034A
:102290001360E37E012B37D02268136843F01003EC
:1022A0001360237F012B35D02268136823F00803C5
:1022B0001360637F012B33D02268136823F004037B
:1022C0001360A368E26813432269134362691343EE
:1022D0006268013A21681343CB61002060620123E8
:1022E00084F82030A0E71A6842F080021A60C0E744
:1022F0002268136843F040031360C2E72268136842
:1023000043F020031360C4E72268136823F010032E
:102310001360C6E72268136843F008031360C8E738
:102320002268136843F004031360CAE70120704772
:10233000026890F82030013BDBB2012B05D9436ADB
:1023400043F4802343620120704710B5D2F8003275
:1023500043F00103C2F800324B6903F01F03012070
:1023600000FA03F3D2F81C026FEA030C20EA030020
:10237000C2F81C02C869C0B9D2F80C020CEA00000D
:10238000C2F80C028C884869D1F80CE044EA0E448B
:10239000483042F830400C884869D1F808E044EAF7
:1023A0000E44483002EBC0004460C86901281AD0CE
:1023B000886988BBD2F804020CEA0000C2F8040263
:1023C000086978BBD2F814020CEA0000C2F81402C3
:1023D000096A01292CD0D2F8003223F00103C2F897
:1023E0000032002010BDD2F80C021843C2F80C02D3
:1023F0008C884869D1F800E044EA0E44483042F83D
:1024000030408C894869D1F808E044EA0E444830ED
:1024100002EBC0004460CBE7D2F804021843C2F8D4
:102420000402CDE7D2F814021843C2F81402CFE731
:10243000D2F81C120B43C2F81C32CCE770B504462C
:1024400090F82050EDB2012D06D0436A43F40023EA
:1024500043620125284670BD022380F820300268BF
:10246000136823F001031360FFF7A2FE06462368FA
:102470005B6813F0010F0CD0FFF79AFE831B0A2B49
:10248000F5D9636A43F400336362052384F820308E
:10249000E0E700256562DDE730B590F820C004680C
:1024A000A4680CF1FF3C5FFA8CFCBCF1010F62D810
:1024B00014F0E05F59D0C4F3016C012404FA0CF469
:1024C0001C608B68002B3DD10D68CB68046843EA23
:1024D00045550CF118031B01E55003680C690CF11C
:1024E000180E03EB0E135C600B7D012B35D0D179F8
:1024F00093791B0443EA0163517943EA0123147978
:102500000168234301EB0C11C1F88C31D178937829
:102510001B0443EA0163517843EA012311780268FE
:102520000B4302EB0C12C2F8883102680CF1180C54
:102530004FEA0C1C52F80C3043F0010342F80C3007
:1025400000201DE04C6843EAC403CC6823430CF12F
:102550001804240105682B51BFE7036803EB0E1331
:10256000596841F480715960C1E7436A43F400132C
:102570004362012004E0436A43F480234362012064
:1025800030BD90F820C00CF1FF3C5FFA8CFCBCF130
:10259000010F00F2A58030B451B90468E46814F06A
:1025A000030F10D1436A43F40013436201207EE01D
:1025B0000468246914F0030F05D1436A43F400133F
:1025C0004362012073E0056801F11B0424012C59CA
:1025D00004F004049460002C6BD1056801F11B0425
:1025E00024012C59640D1460046801F11B0C4FEA9E
:1025F0000C1C54F80C4004F00204D4600468A44499
:10260000DCF8045015F0080F5BD00824146104684E
:1026100001F11B0C04EB0C146468C4F307249461EF
:10262000046804EB0C146468240C5461026802EB27
:102630000112D2F8B8211A70026802EB0112D2F826
:10264000B821C2F307225A70026802EB0112D2F8D5
:10265000B821C2F307429A70026802EB0112D2F865
:10266000B821120EDA70026802EB0112D2F8BC2116
:102670001A71026802EB0112D2F8BC21C2F30722E0
:102680005A71026802EB0112D2F8BC21C2F3074270
:102690009A71026802EB0112D2F8BC21120EDA71B3
:1026A000C1B90268D36843F02003D360002030BC76
:1026B0007047056801F11B0424012C59E40854609B
:1026C00092E701F11B0504EB0514646804F00F04A4
:1026D00014619CE70268136943F020031361E5E786
:1026E000436A43F4802343620120704790F820300E
:1026F000013BDBB2012B05D9436A43F480234362DB
:1027000001207047026853690B43536100207047F2
:102710007047704770477047704770477047704701
:1027200070477047704770472DE9F84F05460368BA
:102730005C69D3F804809F68D3F80CB0D3F810A07C
:10274000D3F8189014F001063BD017F0010616D00C
:1027500001229A6017F0020F08D117F0040F0CD174
:1027600017F0080606D04FF4805608E0FFF7D0FFB8
:10277000002604E0FFF7CFFF01E04FF4006617F4F6
:10278000807F0DD02B684FF480729A6017F4007F21
:1027900040F0868017F4806F00F0868046F4005683
:1027A00017F4803F0DD02B684FF480329A6017F4F5
:1027B000003F40F0838017F4802F00F0838046F4C0
:1027C000004614F0080F07D01BF0100F04D046F499
:1027D00000762B681022DA6014F0040F02D01BF090
:1027E000080F79D114F0020F04D02B68DB6813F0C6
:1027F000030F78D114F0400F07D01AF0100F04D057
:1028000046F480662B6810221A6114F0200F02D063
:102810001AF0080F6BD114F0100F04D02B681B694D
:1028200013F0030F6AD114F4003F02D018F0100F18
:1028300068D114F4803F02D018F0080F69D114F465
:10284000004F7AD018F0040F74D014F4807F04D0B5
:1028500019F0010F01D046F0010614F4007F04D0F6
:1028600019F0020F01D046F0020614F4806F04D074
:1028700019F0040F01D046F0040614F4006F59D08B
:1028800019F0700956D0B9F1400F65D058D8B9F198
:10289000200F5ED0B9F1300F42D146F0200644E05F
:1028A0002846FFF736FF7BE717F4006F02D046F4A7
:1028B000804675E72846FFF72FFF71E72846FFF7A8
:1028C00029FF7EE717F4002F02D046F4803678E720
:1028D0002846FFF722FF74E72B680822DA602846B3
:1028E000FFF71CFF7EE72846FFF754FA82E72B68C4
:1028F00008221A612846FFF713FF8CE72846FFF7E6
:102900000EFF90E72B6810225A602846FFF709FF58
:102910008FE72B6808225A602846FFF703FF8EE7EF
:10292000B9F1100F01D146F008062A68936923F027
:10293000700393612B6804225A609EB9BDE8F88F3A
:10294000B9F1500F0BD0B9F1600FEED146F480769B
:10295000EBE746F01006E8E746F04006E5E746F00C
:102960008006E2E76B6A33436B622846FFF7DBFEC3
:10297000E4E70000002808DB0901C9B200F160406B
:1029800000F5614080F80013704700F00F00090166
:10299000C9B2014B1954704714ED00E000B500F0C6
:1029A0000700C0F1070CBCF1040F28BF4FF0040C66
:1029B000031D062B0FD9C31E4FF0FF3E0EFA0CF07D
:1029C00021EA000199400EFA03FE22EA0E0241EAD2
:1029D00002005DF804FB0023EEE70000074AD3681D
:1029E00023F4E0631B041B0C000200F4E0600343CB
:1029F00043F0BF6343F40033D360704700ED00E061
:102A000010B50446054BD868C0F30220FFF7C6FF97
:102A100001462046FFF7AEFF10BD00BF00ED00E00D
:102A2000002807DB00F01F02400901239340024AFF
:102A300042F82030704700BF00E100E00138B0F1FB
:102A4000807F0BD24FF0E0235861054AF02182F8D5
:102A500023100020986107221A61704701207047F7
:102A600000ED00E070B582B00024A446A2E07E4DE7
:102A7000AB4210D007D97D4DAB420CD005F5803567
:102A8000AB4208D013E0A5F58015AB4203D005F5A5
:102A90007025AB4207D18B68002B55D0012B4ED04F
:102AA0004261082403E0A5F58015AB42F3D0BEF1E6
:102AB000FF0F4BD806464FEA8C0233680F2595402E
:102AC00023EA050304FA02F2134333604B6813F060
:102AD000805F6DD0664B9A6942F001029A619B69F2
:102AE00003F001030193019B4FEA9C02951C614B8B
:102AF00053F825600CF00305AD000F23AB4026EA28
:102B000003065D4B984228D003F58063984200F09D
:102B10008D8003F58063984200F08A8003F580631E
:102B2000984218D0042319E0CC68C0E7CC6804347C
:102B3000BDE7CC680834BAE7CC680C34B7E702616B
:102B40000824B4E70024B2E70424B0E7061DACF182
:102B500008029200B1E7032300E00023AB403343B7
:102B60000232444D45F822304B6813F4801F61D087
:102B7000424A936843EA0E0393604B6813F4001FC4
:102B80005ED03E4AD36843EA0E03D3604B6813F429
:102B9000003F5BD0394A536843EA0E0353604B68E9
:102BA00013F4803F58D0354A136843EA0E0313608C
:102BB0000CF1010C0B6833FA0CF253D0012202FA2B
:102BC0000CF203EA020E32EA0303F1D14B68122B36
:102BD0003FF64DAF122B3FF66AAF01A555F823F033
:102BE000972A0008292B0008332B0008452B0008E2
:102BF000AF2A0008AF2A0008AF2A0008AF2A000851
:102C0000AF2A0008AF2A0008AF2A0008AF2A000840
:102C1000AF2A0008AF2A0008AF2A0008AF2A000830
:102C2000AF2A00082D2B0008392B0008012395E757
:102C3000022393E7114A936823EA0E0393609CE70B
:102C40000E4AD36823EA0E03D3609FE70B4A53680A
:102C500023EA0E035360A2E7084A136823EA0E032F
:102C60001360A5E702B070BD000022100000311013
:102C70000010024000000140000801400004014033
:102C80000AB101617047090401617047C36801EA34
:102C9000030221EA030141EA024101617047000099
:102CA00082B0084B1B68084AA2FB03235B0A00FBA7
:102CB00003F3019300BF019B5A1E0192002BF9D12F
:102CC00002B0704720000020D34D6210002800F0B1
:102CD000F18170B582B00446036813F0010F2CD067
:102CE000994B5B6803F00C03042B1DD0964B5B687B
:102CF00003F00C03082B12D06368B3F5803F41D07A
:102D0000002B55D103F1804303F504331A6822F4F4
:102D100080321A601A6822F480221A6037E08A4BE7
:102D20005B6813F4803FE7D0874B1B6813F4003FC8
:102D300003D06368002B00F0BF81236813F0020FFB
:102D400075D0814B5B6813F00C0F5FD07E4B5B68D6
:102D500003F00C03082B54D02369002B00F08A8069
:102D60007A4B01221A60FFF723FA0546764B1B685F
:102D700013F0020F75D1FFF71BFA401B0228F5D99B
:102D800003209EE1704A136843F480331360636844
:102D900043B3FFF70DFA05466B4B1B6813F4003F76
:102DA000CBD1FFF705FA401B6428F5D9032088E151
:102DB000B3F5A02F09D0644B1A6822F480321A6050
:102DC0001A6822F480221A60E1E703F18043A3F538
:102DD0003C331A6842F480221A601A6842F4803246
:102DE0001A60D4E7FFF7E4F90546574B1B6813F464
:102DF000003FA2D0FFF7DCF9401B6428F5D903207F
:102E00005FE1514B5B6813F4803FA5D14E4B1B68CB
:102E100013F0020F03D02369012B40F04F814A4A7F
:102E2000136823F0F803616943EAC1031360236860
:102E300013F0080F33D0A369002B5CD0434B012261
:102E4000C3F88024FFF7B4F905463F4B5B6A13F0E3
:102E5000020F21D1FFF7ACF9401B0228F5D903205E
:102E60002FE1394A136823F0F803616943EAC1038B
:102E70001360DCE7354B00221A60FFF799F905462D
:102E8000314B1B6813F0020FD1D0FFF791F9401BB3
:102E90000228F5D9032014E10120FFF701FF236880
:102EA00013F0040F00F09680274BDB6913F0805F6E
:102EB00034D1254BDA6942F08052DA61DB6903F0E4
:102EC00080530193019B0125214B1B6813F4807FE4
:102ED00026D0E368012B3DD0002B53D103F1804372
:102EE00003F504331A6A22F001021A621A6A22F008
:102EF00004021A6233E0154B0022C3F88024FFF766
:102F000057F90546104B5B6A13F0020FC7D0FFF765
:102F10004FF9401B0228F5D90320D2E00025D3E762
:102F20000B4A136843F480731360FFF741F90646B8
:102F3000074B1B6813F4807FCBD1FFF739F9801B57
:102F40006428F5D90320BCE0001002400000424292
:102F5000007000405F4A136A43F001031362E368A4
:102F600033B3FFF725F906465A4B1B6A13F0020FDD
:102F70002FD1FFF71DF9801B41F288339842F3D916
:102F800003209EE0052B09D0524B1A6A22F0010261
:102F90001A621A6A22F004021A62E0E74D4B1A6ABA
:102FA00042F004021A621A6A42F001021A62D6E77B
:102FB000FFF7FEF80646474B1B6A13F0020F08D0D6
:102FC000FFF7F6F8801B41F288339842F3D90320CB
:102FD00077E0E5B9E369002B72D03E4A526802F00F
:102FE0000C02082A56D0022B17D03B4B00221A663F
:102FF000FFF7DEF80446374B1B6813F0007F47D01D
:10300000FFF7D6F8001B0228F5D9032059E0314A12
:10301000D36923F08053D361DCE72F4B00221A667B
:10302000FFF7C6F805462B4B1B6813F0007F06D050
:10303000FFF7BEF8401B0228F5D9032041E0236AC0
:10304000B3F5803F1AD023494B6823F47413226AE6
:10305000606A024313434B601F4B01221A66FFF75D
:10306000A7F804461B4B1B6813F0007F0ED1FFF737
:103070009FF8001B0228F5D9032022E0154A536867
:1030800023F40033A1680B435360DCE7002018E011
:10309000002016E0012B16D00E4B5B6803F4803144
:1030A000226A914211D103F47013626A93420ED1E5
:1030B000002006E001207047012002E0012000E02E
:1030C000002002B070BD0120FBE70120F9E70120DC
:1030D000F7E700BF00100240000042420F4B5B6860
:1030E00003F00C02082A01D00D487047C3F3834255
:1030F0000C49885C13F4803F0BD0084B5B68C3F32A
:103100004043094AD35C064A02FB00F0B0FBF3F0EF
:103110007047064B03FB00F0704700BF00100240F1
:1031200000127A0040B700083CB7000800093D00D3
:10313000002800F0A08070B50D460446524B1B6875
:1031400003F007038B420BD24F4A136823F00703A7
:103150000B431360136803F007038B4240F08D802C
:10316000236813F0020F17D013F0040F04D0474A5E
:10317000536843F4E0635360236813F0080F04D0EE
:10318000424A536843F460535360404A536823F003
:10319000F003A1680B435360236813F0010F31D093
:1031A0006368012B20D0022B25D0384A126812F018
:1031B000020F64D035494A6822F0030213434B6082
:1031C000FEF7F6FF0646314B5B6803F00C036268BE
:1031D000B3EB820F16D0FEF7EBFF801B41F2883372
:1031E0009842F0D9032045E0284A126812F4003FC3
:1031F000E0D101203EE0254A126812F0007FD9D1CB
:10320000012037E0204B1B6803F00703AB420AD9CB
:103210001D4A136823F007032B431360136803F060
:103220000703AB422DD1236813F0040F06D0174AD1
:10323000536823F4E063E1680B435360236813F0A1
:10324000080F07D0114A536823F46053216943EAF9
:10325000C1035360FFF742FF0C4B5B68C3F30313DA
:103260000B4AD35CD8400B4B18600B4B1868FEF729
:103270005BFF002070BD012070470120FAE70120AC
:10328000F8E70120F6E700BF0020024000100240EE
:103290002CB700082000002028000020014B1868EF
:1032A000704700BF2000002008B5FFF7F7FF044B70
:1032B0005B68C3F30223034AD35CD84008BD00BF58
:1032C0000010024024B7000808B5FFF7E7FF044BE1
:1032D0005B68C3F3C223034AD35CD84008BD00BF78
:1032E0000010024024B700082DE9F04782B00546DF
:1032F000884617461E46FEF75BFF0A9B1B1A03EB28
:103300000609FEF755FF8246284B1B68C3F3CB33F3
:1033100009FB03F301932B689C6838EA04040CBF93
:1033200001230023BB423DD0B6F1FF3FF3D0FEF7AF
:103330003FFFA0EB0A00484507D2019A02B14A4676
:10334000019B013B01939146E5E72A68536823F00E
:10335000E00353606B68B3F5827F0BD0AB6AB3F5C3
:10336000005F14D0012385F85130002385F85030D8
:10337000032018E0AB68B3F5004F02D0B3F5806FBF
:10338000ECD12A68136823F040031360E6E72A684B
:10339000136823F4005313602A68136843F400533E
:1033A0001360DFE7002002B0BDE8F08720000020B6
:1033B00010B582B004460B46009200228021FFF730
:1033C00093FF08B902B010BD636D43F0200363653D
:1033D0000320F7E710B582B004460B464168B1F50B
:1033E000827F10D06168B1F5827F03D1A168B1F509
:1033F000806F15D00092002280212046FFF774FFD5
:10340000E0B902B010BD8168B1F5004F02D0B1F54E
:10341000806FE7D12068016821F040010160E1E799
:103420000092002201212046FFF75EFF0028E8D02D
:10343000636D43F0200363650320E2E7636D43F0AF
:10344000200363650320DCE7002856D010B504464E
:10345000436A33B94368B3F5827F05D00023C36163
:1034600002E00023036143610023A36294F851301A
:10347000002B3CD0022384F851302268136823F0DB
:1034800040031360636803F48273A26802F4044289
:103490001343E26802F400621343226902F002025D
:1034A0001343626902F001021343A26902F400723D
:1034B0001343E26902F038021343226A02F08002E9
:1034C0001343A26A02F40052216813430B60638B1A
:1034D000226803F0040353602268D36923F4006375
:1034E000D36100206065012384F8513010BD84F859
:1034F00050302046FEF7DCFCBCE7012070472DE988
:10350000F04383B01D4690F85030012B00F0D1807D
:10351000044688469146012380F85030FEF748FE65
:10352000074694F85160F6B2012E40F0BA80B8F127
:10353000000F00F0B780B9F1000F00F0B380032353
:1035400084F8513000236365C4F83080A4F83490C7
:10355000A4F83690A363A387E38763642364A36816
:10356000B3F5004F1ED023681A6812F0400F03D144
:103570001A6842F040021A60E368B3F5006F1CD08D
:10358000636813B1B9F1010F55D1226B236812782A
:103590001A73236B01332363E38E9BB2013B9BB20F
:1035A000E38648E02268136823F040031360226832
:1035B000136843F480431360D5E7636813B1B9F12E
:1035C000010F15D1226B23681288DA60236B023356
:1035D0002363E38E9BB2013B9BB2E38608E0FEF7D8
:1035E000E7FDC01BA84202D3B5F1FF3F15D1A5B13D
:1035F000E38E9BB2002B3CD023689A6812F0020F36
:10360000EDD0226B1288DA60236B02332363E38EE2
:103610009BB2013B9BB2E386EAE7012384F8513079
:1036200003263FE0FEF7C4FDC01BA84202D3B5F15C
:10363000FF3F19D1C5B1E38E9BB2D3B123689A681D
:1036400012F0020FEED0226B12781A73236B013343
:103650002363B4F836C01FFA8CFC0CF1FF3C1FFA50
:103660008CFCA4F836C0E6E7012384F85130032629
:1036700018E03A4629462046FFF79AFE08B1202373
:103680006365A36833B901932368DA6801929B6884
:103690000193019B636D2BB9012384F851300026FF
:1036A00000E00226002384F85030304603B0BDE825
:1036B000F0830226F9E72DE9F04383B01F460A9D07
:1036C00090F85030012B00F0168104468846914650
:1036D000012380F85030FEF76BFD064694F8513018
:1036E000DBB26268012B0AD0B2F5827F40F0F08035
:1036F000A268002A40F0F380042B40F0F280B8F179
:10370000000F00F0F080B9F1000F00F0EE80002F04
:1037100000F0ED8094F85130DBB2042B02D0052389
:1037200084F8513000236365C4F83890E787A78791
:10373000C4F83080E786A7862364636423681A6828
:1037400012F0400F03D11A6842F040021A60E36899
:10375000B3F5006F11D063680BB1012F0BD1226B51
:10376000236812781A73236B01332363E38E9BB2B1
:10377000013B9BB2E38601276EE063680BB1012F2A
:103780000BD1226B23681288DA60236B0233236328
:10379000E38E9BB2013B9BB2E38601271BE02368CB
:1037A0009A6812F0010F0ED0E28F92B25AB1DA6825
:1037B000A36B1A80A36B0233A363E38F9BB2013B1D
:1037C0009BB2E3870127FEF7F3FC801BA84202D3DC
:1037D000B5F1FF3F1ED1E38E9BB21BB9E38F9BB2C5
:1037E000002B5CD023689A6812F0020FD7D0E28ECB
:1037F00092B2002AD3D0002FD1D0226B1288DA6087
:10380000236B02332363E38E9BB2013B9BB2E386BF
:103810000027C4E7012384F85130032059E02368CE
:103820009A6812F0010F0ED0E28F92B25AB1DA68A4
:10383000A36B1A70A36B0133A363E38F9BB2013BAD
:103840009BB2E3870127FEF7B3FC831BAB4202D395
:10385000B5F1FF3F1ED1EDB1E38E9BB213B9E38FFB
:103860009BB2E3B123689A6812F0020FD7D0E28EC0
:1038700092B2002AD3D0002FD1D0226B12781A73C3
:10388000236B01332363E38E9BB2013B9BB2E38640
:103890000027C4E7012384F85130032019E03246A1
:1038A00029462046FFF784FD70B9A36833B9019318
:1038B0002368DA6801929B680193019B636DC3B929
:1038C000012384F8513004E020236365012000E0E7
:1038D0000220002384F8503003B0BDE8F0830220BA
:1038E000F7E70220F5E70120F3E70120F1E70120E7
:1038F000EFE70120EDE70220EEE72DE9F04383B08A
:10390000044690F85160F6B2012E40F0AB80884634
:1039100091461D464368B3F5827F32D094F850300B
:10392000012B00F0A780012384F85030FEF740FC03
:103930000746B8F1000F00F09680B9F1000F00F0D3
:103940009280042384F8513000236365C4F83880E2
:10395000A4F83C90A4F83E902363A386E3862364F6
:103960006364A368B3F5004F18D023681A6812F097
:10397000400F03D11A6842F040021A60E3680BB3AB
:1039800043E08368002BC9D1042380F851300095AF
:1039900013460A46FFF78FFE064667E02268136863
:1039A00023F0400313602268136823F480431360FC
:1039B000DBE7FEF7FDFBC01BA84202D3B5F1FF3FDA
:1039C00015D1A5B1E38F9BB2002B3CD023689A6838
:1039D00012F0010FEDD0A26B1B7B1370A36B0133B0
:1039E000A363E38F9BB2013B9BB2E387EAE701232A
:1039F00084F85130032636E0FEF7DAFBC01BA842FC
:103A000002D3B5F1FF3F19D1C5B1E38F9BB2D3B15A
:103A100023689A6812F0010FEED0DA68A36B1A805F
:103A2000A36B0233A363B4F83EC01FFA8CFC0CF105
:103A3000FF3C1FFA8CFCA4F83EC0E6E7012384F8A3
:103A4000513003260FE03A4629462046FFF7C2FCD4
:103A500008B120236365636D2BB9012384F85130CD
:103A6000002600E00226002384F85030304603B0E0
:103A7000BDE8F0830226F9E710B504460268136931
:103A800023F44053C1680B431361836802691343F5
:103A900042691A430168CB6823F4B05323F00C0346
:103AA0001343CB600268536923F4407381690B436D
:103AB00053610268134B9A4220D0FFF7F5FB024690
:103AC00002EB820202EB820263689B00B2FBF3F21C
:103AD0000D48A0FB02314909642303FB11231B019C
:103AE0003233A0FB03035B0903F0F00202EB011287
:103AF00003F00F03216813448B6010BDFFF7E4FB54
:103B00000246DDE7003801401F85EB512DE9F843FF
:103B100005460F4616469946DDF820802B681C683E
:103B200037EA04040CBF01240024B4422DD1B8F1BB
:103B3000FF3FF3D0B8F1000F05D0FEF739FBA0EB43
:103B400009004045EAD92A6802F10C0353E8003F16
:103B500023F4D0730C3242E800310029F3D12A68F3
:103B600002F1140353E8003F23F00103143242E84A
:103B700000310029F3D1202385F8413085F8423007
:103B8000002385F84030032000E00020BDE8F883E2
:103B900060B310B5044690F8413013B3242384F881
:103BA00041302268D36823F40053D3602046FFF7E6
:103BB00063FF2268136923F49043136122685369F9
:103BC00023F02A0353612268D36843F40053D3607F
:103BD00000206064202384F8413084F84230606320
:103BE00010BD80F84030FEF79FF9D7E701207047FD
:103BF000002831D010B5044690F841303BB324235F
:103C000084F841302268D36823F40053D3602046FF
:103C1000FFF732FF2268136923F49043136122688F
:103C2000536923F0220353612268536943F0080368
:103C300053612268D36843F40053D360002060646A
:103C4000202384F8413084F84230606310BD80F84E
:103C50004030FEF769F9D2E7012070472DE9F041C5
:103C600082B01E4690F84130DBB2202B4BD1044687
:103C70000D46904600294AD00AB9012044E00023AD
:103C80004364212380F84130FEF792FA0746A4F8F6
:103C90002480A4F82680A368B3F5805F02D04FF09B
:103CA00000080FE02369FBB14FF000080AE038F884
:103CB000023B2268C3F308035360E28C92B2013ADC
:103CC00092B2E284E38C9BB28BB100963B46002219
:103CD00080212046FFF71AFFD8B9002DE7D015F84C
:103CE000012B23685A60E8E7A8460025EAE700961A
:103CF0003B46002240212046FFF708FF58B9202309
:103D000084F8413000E0022002B0BDE8F0810120DB
:103D1000FAE70320F8E70320F6E72DE9F04182B047
:103D20001E4690F84230DBB2202B53D104460D469C
:103D30009046002952D00AB901204CE00023436488
:103D4000222280F842200363FEF732FA0746A4F8E5
:103D50002C80A4F82E80A368B3F5805F02D04FF0CA
:103D6000000817E0236913B14FF0000812E0A846DD
:103D700000250FE023685B68C3F3080328F8023BC3
:103D800003E023685B682B700135E28D92B2013A43
:103D900092B2E285E38D9BB2BBB100963B46002216
:103DA00020212046FFF7B2FED0B9002DE2D0A36853
:103DB000B3F5805FE5D013B92369002BE1D0236808
:103DC0005B6803F07F032B70DEE7202384F842302A
:103DD000002000E0022002B0BDE8F0810120FAE7F7
:103DE0000320F8E700B5864600200B460139C9B22A
:103DF000A3B11EF801CB082303E04FEA5C0C013BA2
:103E0000DBB2002BF1D080EA0C0212F0010F4FEA76
:103E10005000F2D080F08C00C0B2EEE75DF804FBF9
:103E2000F0B583B0019143781BB90127384603B040
:103E3000F0BD054616469DF80410406800F054F9A0
:103E40009DF80570B7B93C461CE0FF21686800F09A
:103E50004BF930550134E4B2A742F6D8791EC9B205
:103E60003046FFF7BFFF3E4416F8013C83420ED1B7
:103E70000027DBE70024EFE7315D686800F034F9E4
:103E80000134E4B29DF80630A342F5D8CEE701270D
:103E9000CCE710B504460121406800F007F903E0C3
:103EA0000121606800F002F9FF28F9D110BD00007F
:103EB00070B582B006460C460DF10702144B196826
:103EC000FFF7AEFF0546012C04D0022C06D0284691
:103ED00002B070BD3046FFF7DCFFF6E7337C5F2BA6
:103EE0000DD007D81F2B0DD03F2B0DD1BC20FEF7D6
:103EF00065F9ECE77F2B09D140F2EE20F7E740F2BD
:103F00007710F4E75E20F2E70020F0E70020EEE70C
:103F100050B7000870B584B0044601AA214B196857
:103F2000FFF77EFF064690BB9DF80630E3739DF8D1
:103F30000730A3739DF8083023749DF805109DF891
:103F4000042042EA0122104612F4784501D0504282
:103F500080B25F2B1ED008D81F2B0BD03F2B1ED159
:103F600020F003004005400D06E07F2B17D1C0F381
:103F70000A0001E000F4FF60FCF7F0FB4FF076511F
:103F8000FCF7C6F8606115B100F100406061304691
:103F900004B070BD20F001004005400DECE7C0F317
:103FA0000A00E9E758B7000838B505460C460A4646
:103FB000054B1968FFF734FF28B92378EB73637852
:103FC000AB73A3782B7438BD54B7000803780BB9D2
:103FD0000120704710B50446406800F0A4F810B9FD
:103FE0000123637010BD002363700120FAE7000015
:103FF00010B582B004466A46094B1968FFF710FFF6
:1040000060B9034608E05A1C03F10901694411F83C
:10401000081C23441972D3B2052BF4D902B010BD89
:1040200060B7000800B583B00DF10702034B1968B3
:10403000FFF7F6FE03B05DF804FB00BF5CB70008B5
:1040400000234370416001230370704710B504469C
:1040500041600268134B9A4220D0FFF725F90246CF
:1040600002EB820202EB820263689B00B2FBF3F276
:104070000D48A0FB02314909642303FB11231B01F6
:104080003233A0FB03035B0903F0F00202EB0112E1
:1040900003F00F03216813448B6010BDFFF714F980
:1040A0000246DDE7003801401F85EB5110B582B0B4
:1040B0000446FF238DF8073000238DF8063009B938
:1040C0008DF807300A2301220DF107012046FFF782
:1040D000C5FD0A2301220DF106012046FFF71DFE52
:1040E0009DF8060002B010BD2DE9F04107460E46CE
:1040F0000024254606E0012303FA08F32B43DDB232
:104100000134E4B2072C0BD8A04646FA04F101F0C2
:1041100001013846FFF7CAFFFF28ECD00023EBE788
:104120002846BDE8F08110B582B00446F0238DF832
:10413000073000238DF806304FF41651FFF786FF45
:104140000A2301220DF107012046FFF787FD0A230C
:1041500001220DF106012046FFF7DFFD4FF4E131AA
:104160002046FFF773FF9DF806209DF807309A421E
:1041700002D0002002B010BD0120FBE730B583B0B3
:104180000446164DEB6898476B6998476B6A6BB1AC
:10419000AB6A5BB1220C8DF80420220A8DF8052051
:1041A0008DF80640032101A898470BE00B4D2B6AC0
:1041B000C4F3074098472B6AC4F3072098472B6A3B
:1041C000E0B29847054DEB6998470446AB699847BC
:1041D0002B699847204603B030BD00BF3000002057
:1041E00070B582B004460E46164DEB6898476B6971
:1041F000984744F00404AB6AA3B1220C8DF8042064
:10420000220A8DF805208DF806408DF807600421FC
:104210000DEB010098470B4CA36998472369984719
:1042200002B070BD2B6AC4F3074098472B6AC4F3F1
:10423000072098472B6AE0B298472B6A3046984788
:10424000E9E700BF30000020F0B583B004460E4619
:1042500015461B4FFB6898477B6998477B6A93B16B
:10426000BB6A83B1220C8DF80420220A8DF8052048
:104270008DF80640032101A89847114B5B6A294637
:104280003046984715E00E4F3B6AC4F30740984705
:104290003B6AC4F3072098473B6AE0B29847002482
:1042A00005E0074BDB69984730550134A4B2AC42B6
:1042B000F7D3034CA36998472369984703B0F0BD2F
:1042C00030000020F0B583B004460E4615461B4F63
:1042D000FB6898477B69984744F00404BB6AB3B114
:1042E000220C8DF80420220A8DF805208DF8064056
:1042F000032101A89847114B9B6A294630469847ED
:104300000E4CA36998472369984703B0F0BD3B6AF8
:10431000C4F3074098473B6AC4F3072098473B6AB9
:10432000E0B29847002405E0044B1B6A305D9847D3
:104330000134A4B2AC42F7D3E2E700BF3000002062
:104340002DE9F0410746002501E0A54220D04FEAC3
:10435000870808F101084FEAC80808F500563046FA
:10436000FFF70CFF0402A4B208F504584046FFF71B
:1043700005FF0444A4B2002CE7D03046FFF7FEFE50
:104380000502ADB24046FFF7F9FE0544ADB2DCE7E9
:104390002846BDE8F0812DE9F0410746002501E0FF
:1043A000A54220D04FEA870808F101084FEAC80863
:1043B00008F518563046FFF7E1FE0402A4B208F5EE
:1043C0001C584046FFF7DAFE0444A4B2002CE7D0A4
:1043D0003046FFF7D3FE0502ADB24046FFF7CEFEF2
:1043E0000544ADB2DCE72846BDE8F08102B970476C
:1043F0002DE9F8430E461746840004F101094FEAFF
:10440000C90909F510584046FFF7B8FE0502ADB2DC
:1044100009F514594846FFF7B1FE0544ADB2A01C9A
:10442000C0003A46314600EB0520FFF74BFF7919F3
:104430008CB2C1F307214046FFF7D2FEE1B24846F5
:10444000FFF7CEFEBDE8F88302B970472DE9F843C7
:104450000E461746840004F101094FEAC90909F51F
:1044600020584046FFF78AFE0502ADB209F52459EF
:104470004846FFF783FE0544ADB2E01CC0003A4653
:10448000314600EB0520FFF7DFFE79198CB2C1F34E
:1044900007214046FFF7A4FEE1B24846FFF7A0FE21
:1044A000BDE8F883082802D94FF0FF30704770B597
:1044B000054684000134E40004F58076102130467E
:1044C000FFF78EFE3046FFF759FE0028FAD11F2174
:1044D00004F50070FFF784FE0123AB40DB439BB281
:1044E0000A490A881A400A80094A11880B40138039
:1044F0000023084A22F81530074A535504F5407046
:10450000FFF73CFE0028F9D1012070BDFE08002015
:10451000FC080020EC080020E4080020082800F235
:1045200094802DE9F04182B005460F4690461E4624
:10453000012963D04BB2002B00F08A808B1EDBB2C6
:10454000022B00F2888016F0040F40F087801EB125
:10455000012F60D0022F64D02846FFF7A3FFAC00E4
:104560000134E40026F00F0139432046FFF738FEFE
:10457000B8F1000F0AD13C4AB2F8008008F10103FB
:104580009BB213804FF6F072934259D04FEA182134
:1045900004F58060FFF724FE5FFA88F104F5A0605F
:1045A000FFF71EFE04F5807701213846FFF718FE5D
:1045B0003846FFF7E3FD0028FAD10123AB40DB4387
:1045C0009BB22A490A881A400A8006F00106AE40CA
:1045D00032430A80264A11880B4013800023254A63
:1045E00022F81530244A535504F54070FFF7C6FDF4
:1045F0000028F9D068B202B0BDE8F08104220DEBCA
:1046000002014FF47060FFF71FFE019B002B9AD14F
:104610006FF00200EFE716F0210F9DD16FF005005B
:10462000E9E716F0200F02D016F0800F19D016F02F
:10463000100F91D016F0800F8ED16FF00500DAE7E1
:10464000094B4FF440421A80A0E74FF0FF3070470B
:104650006FF00400CFE76FF00400CCE76FF00500C7
:10466000C9E76FF00500C6E72C000020FE08002017
:10467000FC080020EC080020E408002008282AD8C4
:1046800070B5054684000134E4002046FFF776FD4E
:1046900000F00F00012821D104F540763046FFF7E5
:1046A0006DFD13281DD104F5807402212046FFF70B
:1046B00097FD2046FFF762FD0028FAD13046FFF74C
:1046C0005DFD142801D1012070BD2846FFF7EAFEE8
:1046D0006FF00300F8E74FF0FF3070476FF0040011
:1046E000F2E76FF00200EFE7082838D870B5064609
:1046F00084000134E4002046FFF740FD00F00F0085
:1047000001282FD104F5807508212846FFF768FDA0
:104710002846FFF733FD0028FAD10123B340DB43DD
:104720001BB2134A11880B401380124B1B88334174
:1047300013F0010F19D104F54070FFF71FFD60B1B0
:1047400004F50070FFF71AFD10F0080FF3D03046A3
:10475000FFF7A8FE6FF00C0008E0012006E04FF024
:10476000FF3070476FF0040000E0002070BD00BF14
:10477000FC080020FE08002008287ED82DE9F84318
:1047800005468946144687000137FF003846FFF783
:10479000F5FC00F00F00012872D1002C73D007F552
:1047A00040784046FFF7EAFC172801D01C286DD15D
:1047B000384B1B882B4113F0010F19D007F50076F9
:1047C0003046FFF7DBFC10F0100F05D110F0080F9A
:1047D00018D10020BDE8F88310213046FFF700FD16
:1047E0000123AB40DB431BB22A4A11880B401380E4
:1047F00007F5F850FFF7C2FC8602B6B2B4420FD8F4
:1048000026460DE02846FFF74DFE6FF00C00E1E76D
:104810002846FFF747FE6FF00600DBE7B44214D2EC
:104820002846FFF78DFD04464046FFF7A7FC1728F2
:1048300001D01C28ECD1184B1B882B4113F0010F21
:10484000ECD0B442EAD20020C4E7324649462846BA
:10485000FFF7CCFD07F5807720213846FFF7C0FC35
:104860003846FFF78BFC0028FAD10123AB40094AF8
:1048700011880B4313803046ACE74FF0FF30704790
:104880006FF00400A6E76FF00D00A3E76FF00600DD
:10489000A0E700BFFC080020FE08002008285FD821
:1048A0002DE9F84305468846144686000136F60091
:1048B0003046FFF763FC00F00F00012853D1002CB5
:1048C00054D006F5F050FFF759FC8702BFB2BC4246
:1048D0000ED827460CE02846FFF7E4FD6FF00600EF
:1048E0003CE02846FFF7DEFD6FF0060036E00CBB2B
:1048F0002846FFF750FD044606F54070FFF73EFCE2
:1049000017280DD01C28ECD1A4B92846FFF718FDB4
:10491000814606F5F850FFF731FCB9EB802FDAD06D
:10492000144B1B882B4113F0010FE0D0002CDED17B
:10493000002013E0BC4200D33C46224641462846B4
:10494000FFF782FD06F5807640213046FFF748FCF0
:104950003046FFF713FC0028FAD12046BDE8F88363
:104960004FF0FF3070476FF00400F7E76FF00D0075
:10497000F4E700BFFE08002070477047704770479B
:104980000078704701707047002070477047000042
:1049900020B119B1044A506191617047024B034A3A
:1049A0005A61034A9A617047300000207D4900082F
:1049B0007F490008084B1B8813F4007FFAD020B110
:1049C00019B1054BD86119627047034B034ADA618C
:1049D000034A1A62704700BF30000020894900086E
:1049E0008D49000800B587B0062201A94FF4106078
:1049F000FFF72AFC042205A94FF48070FFF724FC7E
:104A0000042204A94FF4A060FFF71EFC042203A9AE
:104A10004FF47060FFF718FC80210020FFF7E0FBE7
:104A20000020FFF7ABFB062201A94FF41060FFF74F
:104A300049FC042205A94FF48070FFF743FC0422CF
:104A400004A94FF4A060FFF73DFC042203A94FF432
:104A50007060FFF737FC07B05DF804FB70B50546E2
:104A60000E46FFF7BFFFCDB100221346072B07DC30
:104A7000E95C0A4452B2102A2FDC01335BB2F5E73D
:104A8000002409E0A0000130C000295D00F5F850C5
:104A9000FFF7A6FB013464B2072CF3DD5EB1002200
:104AA0001346072B09DCF15C0A4452B2102A17DCCA
:104AB00001335BB2F5E700200EE0002409E0A0001E
:104AC0000130C000315D00F5F050FFF789FB013483
:104AD00064B2072CF3DD002070BD4FF0FF30FBE720
:104AE0004FF0FF30F8E7000010B5044606220146FB
:104AF0004FF41060FFF7E6FB042204F10E014FF4BF
:104B00008070FFF7DFFB042204F10A014FF4A0607C
:104B1000FFF7D8FB0422A11D4FF47060FFF7D2FB12
:104B2000A27C064B1A70E27C5A70227D9A70627DDC
:104B3000DA70A27D024B1A7010BD00BF040900207C
:104B40000009002010B50446062201464FF410600B
:104B5000FFF77AFB042204F10E014FF48070FFF797
:104B600073FB042204F10A014FF4A060FFF76CFB11
:104B70000422A11D4FF47060FFF766FB064B1A7804
:104B8000A2745A78E2749A782275DB786375034BC5
:104B90001B78A37510BD00BF040900200009002088
:104BA0002DE9F04F01F10B05162D064683B024D8F0
:104BB000102900F2AA8000F0ABFA102518234FF05C
:104BC000020CB74F3B445C68A3F10802944200F02A
:104BD000198130466368E268A16823F00303CA6064
:104BE000234491605A68083442F001025A6000F090
:104BF00095FA204603B0BDE8F08F35F0070500F1C7
:104C00008480A94200F2818000F082FAB5F5FC7F31
:104C1000C0F06F816B0A7CD0042B00F21B81AB09C2
:104C200003F1390C03F1380E4FEACC009C4F3844A5
:104C300044680838A04207D10DE0002AE16880F2FC
:104C4000DB80884207D00C46636823F003035A1BBD
:104C50000F2AF2DDF446DFF84C823C69444500F04F
:104C6000B980636823F0030EAEEB05030F2B00F34E
:104C70004581002BC7E9048880F22F81BEF5007FB3
:104C8000786880F0C68001234FEADE014FEA5E1E9D
:104C9000194403FA0EF357F83120184307EBC10308
:104CA000083BA260E360786047F83140D46001219E
:104CB0004FEAAC039940814232D8014206D12CF030
:104CC000030C490001420CF1040CFAD007EBCC0AAA
:104CD0005046E146D0F80CE00DE0DEF804207446C2
:104CE00022F00302531B0F2BDEF80CE000F3BF8011
:104CF000002B80F2E3807045EFD109F1010919F032
:104D0000030F00F10800E5D124E10C2333600024F7
:104D10006FE74FF400704FF0400C4FF03F0E85E707
:104D2000BC68636823F00309A94503D3A9EB050315
:104D30000F2B51DC5C4B08201B6803F1100800F0BE
:104D400075FD5A4A04EB0903009313688346013347
:104D5000A84405D008F1FF388044434203EA08081C
:104D60004146304600F004FDB0F1FF3F82464F4A15
:104D700000F0E18004EB0903834200F2DA804C4B3F
:104D80000BF1FF31186840448446186040F0008100
:104D90001AEA010F40F0FC80D7F808A0C84448F098
:104DA0000102CAF804205446424B1968814238BFB8
:104DB0001860414B1968814238BF186022F003081F
:104DC000A845A8EB050301D30F2B05DC304600F006
:104DD000A5F99CE778686AE7621943F0010345F09A
:104DE000010565603046BA600834536000F096F9FA
:104DF000204603B0BDE8F08FA2683046D16023445E
:104E00008A60EFE6DC68A3427FF4E3AE0CF1020CAB
:104E100021E7BEF5206F4FEA5E22C0F08380142A9E
:104E200000F2178102F15C03DB005B32F918FB58DA
:104E30000839994203D1F3E09B68994204D05A683B
:104E400022F003027245F7D8D968C4E902318C60B8
:104E5000DC602CE7142B71D9542B00F203812B0B4F
:104E600003F16F0C03F16E0E4FEACC00DEE6611920
:104E7000304645F00105A668656043F00105C6F8B7
:104E80000CE0CEF80860C7E90411C1F80880C1F849
:104E90000C804D60A35000F041F90834A9E600BF32
:104EA0006800002070000020380900205C0000200D
:104EB00008090020340900203009002022445368EA
:104EC000304643F00103536054F8083FC3F80CE048
:104ED000CEF8083000F022F98BE6A644DEF8043064
:104EE000304643F00103CEF8043000F017F90834DF
:104EF0007FE64FEAD50C05F1080362E6621943F03C
:104F0000010145F0010565603046C7E90422C2F899
:104F10000880C2F80C80516044F80E3000F0FEF8B2
:104F2000083466E64FEA9E1202F13903DB0038329C
:104F30007CE7BC4224D0BC6862683FE703F15C0CAC
:104F400003F15B0E4FEACC0070E65AF8083953457E
:104F500040F0D9801CF0030F0CF1FF3CF5D17B68C9
:104F600023EA01037B60490099423FF6D9AE19B9A3
:104F7000D6E6490009F104091942FAD0CC46A5E663
:104F8000624B0BF1FF31186808EB000CC3F800C04E
:104F90001068013071D004EB0902AAEB02026244EE
:104FA0001A601AF00702CDE9002341D0C2F10802CD
:104FB0009244D04408EA01005A44121A02EA010B52
:104FC0005946304600F0D4FB421C019B72D0A0EB46
:104FD0000A0000EB0B08186848F001025844BC4274
:104FE000C7F808A01860CAF804203FF4DCAEB9F195
:104FF0000F0F45D94FF0050C6168A9F10C0222F0A2
:10500000070201F00101114361600F2A04EB020164
:10501000C1F804C0C1F808C054D8DAF80420C2E6C8
:105020004FF0010E92100EFA02F2104378600CE776
:105030000AEB08020A40ABEB020202EA010B5946F6
:10504000304600F095FB431C019BC0D1DDF800B059
:10505000C1E7542A18D84FEA1E3202F16F03DB0071
:105060006E32E3E6B3F5AA7F18D8EB0B03F1780CA8
:1050700003F1770E4FEACC00D8E5C2F800A090E724
:105080000123CAF80430A1E6B2F5AA7F25D84FEA79
:10509000DE3202F17803DB007732C7E640F2545289
:1050A000934225D8AB0C03F17D0C03F17C0E4FEA43
:1050B000CC00BBE5009A4FF0000B083A9044A8EBF7
:1050C0000A0888E7304604F10801009300F0B4FCB8
:1050D000009BD7F808A018689FE740F254539A4203
:1050E0000DD84FEA9E4202F17D03DB007C329DE643
:1050F0004FF47E704FF07F0C4FF07E0E96E54FF42C
:105100007E737E2292E67B682DE700BF08090020AF
:10511000014800F087BB00BF7C0A0020014800F076
:1051200083BB00BF7C0A0020242B2DE9F84F42D816
:10513000012B40D01F468E468046484875461EF8D3
:1051400001BB10F80B4014F00804F7D1BBF12D0F90
:105150006FD06FF00049BBF12B0F04BF9EF800B079
:1051600005F1020E7BBBBBF1300F4CD00A273B464A
:105170000025B9FBF7F6284607FB169A05E03BD059
:10518000012507FB00C01EF801BBABF1300CBCF1E0
:10519000090F06D9ABF1410CBCF1190F1AD8ABF1CC
:1051A000370C63451FDDB5F1FF3FECD08642E6D2F8
:1051B0004FF0FF35E7E700F003FB1622034600201F
:1051C0001A60BDE8F88F102BD2D1BBF1300F23D07D
:1051D0001F46CDE7ABF1610CBCF1190F03D8ABF161
:1051E000570C6345DFDC6B1C2BD054B9002AE8D088
:1051F00085BB1160BDE8F88FE245C1DA4FF0FF359D
:10520000C1E74042F2E79EF8003003F0DF03582B7D
:1052100008D008273B46ABE79EF8000000F0DF000F
:105220005828D5D110279EF801B03B460EF1020E4A
:105230009EE79EF800B04FF00049012405F1020EF0
:1052400090E72223C8F8003032B10EF1FF31484612
:105250001160CFE78146F8E74846B2E765B7000836
:105260008C4600B586461346034A714610685DF8C1
:1052700004EB6246FFF758BF7C040020024A034952
:10528000034800F0C9B800BF7004002081880008FE
:10529000800400200C4B416810B59942044601D0AF
:1052A00003F0EEFAA168094B994202D0204603F0C0
:1052B000E7FAE168064B994204D02046BDE8104069
:1052C00003F0DEBA10BD00BF3C090020A409002095
:1052D0000C0A00202DE9F84300250423304C314A04
:1052E0003149DFF8C890DFF8C880324F324E116084
:1052F00004F15C0029460822C4E90335C4E90055DD
:10530000C4E90555A560656600F032F904F158005E
:10531000C4E90749C4E90987E66200F07FFA274B30
:105320002946082204F1C4006367C4E91A55C4E998
:105330001E552567C4F8CC50C4F8805000F018F909
:1053400004F1680304F1C000C4F88430C4E9229871
:10535000C4E9247600F062FA194B294604F59670E8
:105360000822C4F8DC30C4E93455C4E93855C4F81F
:10537000D850C4F83451C4F8E85000F0F9F804F1FA
:10538000D003C4E93D87C4F8F09004F59470C4F8E4
:10539000FC60C4F8EC30BDE8F84300F03FBA00BF51
:1053A0003C090020740A00207D520008E1540008E6
:1053B0000555000845550008695500080900010019
:1053C0001200020010B504460A4800F02BFA636B85
:1053D00023B9094B094A1B68626323B1BDE8104039
:1053E000044800F021BAFFF775FFBDE810400148FE
:1053F00000F01ABA840A0020740A002095520008AE
:10540000014800F00FBA00BF840A0020014800F0F4
:105410000BBA00BF840A00202DE9F8434FF00009C1
:1054200080460F461646D6E90154013D10D4A389A3
:10543000013D012B08D9B4F90E30013304D02146C7
:105440004046B84749EA00096B1C04F16804EED1F4
:105450003668002EE7D14846BDE8F8830CB410B595
:105460001E4B00291C689CB033DB4FF402734FF6CF
:10547000FF7CADF81430029006901FAB16D00139B6
:105480001E9A04910791204602A90193ADF816C017
:1054900000F0D0FB421C01DA8B2323600022029B28
:1054A0001A701CB0BDE8104002B07047049107911B
:1054B00020461E9A02A90193ADF816C000F0BAFB6F
:1054C000431C01DA8B2323601CB0BDE8104002B0FE
:1054D00070478B234FF0FF302360F5E77C040020FA
:1054E00010B50C46B1F90E1000F02CF9002803DBC2
:1054F000236D0344236510BDA38923F48053A38146
:1055000010BD00BF2DE9F0410C46B1F90C101F464B
:10551000CB05054616460BD421F48051A1813B46AC
:1055200032462846B4F90E10BDE8F04100F032B919
:10553000B4F90E100223002200F0EEF8B4F90C10BA
:10554000EAE700BF10B50C46B1F90E1000F0E4F820
:10555000B4F90C30421C0EBF23F4805343F4805343
:105560002065A38110BD00BFB1F90E1000F0C2B8D4
:1055700070B5860747D0541E002A3ED00346CAB2F3
:1055800001E0013C39D303F8012B9D07F9D1032C2D
:105590002CD9CDB205EB05250F2C1A4605EB054598
:1055A00034D9A4F1100C2CF00F0603F1100EB64400
:1055B0004FEA1C1C156055609560D560103272452D
:1055C000F8D10CF1010214F00C0F03EB021204F0FD
:1055D0000F0C13D0ACF1040323F003030433134482
:1055E00042F8045B9A42FBD10CF003042CB1C9B21F
:1055F0001C4403F8011B9C42FBD170BD644613465A
:10560000002CF4D1F9E703461446C0E7A446E1E7CD
:1056100040EA01039B0710B524D1032A22D98E4604
:105620008446DEF800407146A4F1013323EA040306
:1056300013F0803F0EF1040E15D1043A032A4CF802
:10564000044BEED8714601F1FF3E52B163461EF89D
:10565000011F541E03F8011B41B122469C46002A3B
:10566000F4D110BD844601F1FF3EEEE79444002CD6
:10567000F7D003F8011B6345FBD110BD024A01239B
:105680001268503200F002B87C040020F0B40746E3
:1056900010B33E468C4616F8015B01E0A54216D0D9
:1056A0001CF8014B002CF9D1E5B10C4616F8015B52
:1056B00001E0002BF9D014F8013B9D42F9D14DB126
:1056C000002306F8013C38461660F0BC704763B111
:1056D0003746DEE72E46F6E71768002FD9D10020BF
:1056E000F0BC704700201560FAE7166038463B7042
:1056F000EBE700BF002238B5064D044608462A6095
:10570000FCF7BAFC431C00D038BD2B68002BFBD043
:10571000236038BD780A002038B50C4611460022B7
:105720008446074D20462A601A466446FCF7AEFCC4
:10573000431C00D038BD2B68002BFBD0236038BD44
:10574000780A002038B50C46114600228446074DE1
:1057500020462A601A466446FCF770FC431C00D0C1
:1057600038BD2B68002BFBD0236038BD780A0020A1
:10577000002238B5064D044608462A60FCF788FC2E
:10578000431C00D038BD2B68002BFBD0236038BDF4
:10579000780A002038B50C46114600228446074D91
:1057A00020462A601A466446FCF758FC431C00D089
:1057B00038BD2B68002BFBD0236038BD780A002051
:1057C000014B1868704700BF7C04002070B50F4B78
:1057D0000F4DAB42A3EB050607D00024B61055F8D9
:1057E000043B01349847A642F9D805F02FFD094D36
:1057F000094B5E1BAB424FEAA60606D0002455F8C3
:10580000043B01349847A642F9D870BD68BB000834
:1058100068BB000868BB000870BB0008704700BF89
:10582000704700BF704700BF704700BF082802D113
:105830004FF48050704708B5FFF7C2FF16220346A9
:105840004FF0FF301A6008BD80EA0102844612F072
:10585000030F4FD111F0030F32D14DF8044D11F069
:10586000040F51F8043B0BD0A3F101329A4312F01C
:10587000803F04BF4CF8043B51F8043B16D100BFF5
:1058800051F8044BA3F101329A4312F0803FA4F186
:1058900001320BD14CF8043BA24312F0803F04BF0D
:1058A00051F8043B4CF8044BEAD023460CF8013B7A
:1058B00013F0FF0F4FEA3323F8D15DF8044B704724
:1058C00011F0010F06D011F8012B0CF8012B002A62
:1058D00008BF704711F0020FBFD031F8022B12F051
:1058E000FF0F16BF2CF8022B8CF8002012F47F4F0C
:1058F000B3D1704711F8012B0CF8012B002AF9D114
:10590000704700BF20F0030110F00300C0F1000059
:1059100051F8043B00F1040C4FEACC0C6FF000028C
:105920001CBF22FA0CF213434FF0010C4CEA0C2C72
:105930004CEA0C4CA3EB0C0222EA030212EACC1252
:1059400004BF51F8043B0430F4D0C2F1000102EA74
:105950000102B2FA82F2C2F11F0200EBD2007047DC
:10596000024B13B1024800F005B870470000000078
:1059700001910008002301461A46184603F058BC5E
:105980002DE9F843064608208946FFF74FFF0546F4
:10599000DFF898803046FFF7BBFBD8F808305F6827
:1059A00027F00307A7F11104A4EB09042C44B4FB6E
:1059B000F5F4013C05FB04F4A54208DC0021304667
:1059C000FFF7D6FED8F808303B44984205D0304661
:1059D000FFF7A4FB0020BDE8F88330466142FFF7E3
:1059E000C7FE01300FD0124AD8F808303F1B47F0ED
:1059F00001075F60136830461B1B1360FFF78EFBC7
:105A00000120BDE8F88300213046FFF7B1FED8F849
:105A10000820831A0F2BDADD43F001035360054B96
:105A200003491B68C01A0860D1E700BF6800002066
:105A3000080900205C00002000297CD0F8B50C4645
:105A40000646FFF765FB54F8043C774FA4F10805C0
:105A500023F001016818D7F808C04268844522F095
:105A6000030200F08380DB07426000EB020C33D4BA
:105A700054F8084CDCF804302D1B2144AC6807F1C5
:105A8000080C644503F0010364D0D5F80CE0C4F8B9
:105A90000CE0CEF80840002B00F0818041F00103BB
:105AA0006B600160B1F5007F22D20122CB08490969
:105AB0008A40796801330A437A6057F8331007EB5C
:105AC000C302083AC5E9021247F83350CD603046A8
:105AD000BDE8F840FFF722BBDCF80430DB072BD52C
