:020000040800F2
:1000000000500020CD160008F5150008F71500086F
:10001000F9150008FB150008FD1500080000000098
:10002000000000000000000000000000FF150008B4
:10003000011600080000000003160008051600085D
:1000400015170008151700081517000815170008E0
:1000500015170008151700081517000815170008D0
:1000600015170008151700081517000815170008C0
:1000700015170008151700081517000815170008B0
:1000800015170008151700081517000815170008A0
:100090001517000815170008151700081517000890
:1000A0001517000815170008151700081517000880
:1000B0001517000815170008151700081517000870
:1000C0001517000815170008151700081517000860
:1000D0001517000815170008151700081517000850
:1000E0001517000815170008151700080000000074
:1000F0000000000000000000000000000000000000
:0C01000000000000000000005FF808F1A3
:100110004FF0FF0C1CEAD0521EBF1CEAD15392EAEA
:100120000C0F93EA0C0F6FD01A4480EA010C4002C6
:1001300018BF5FEA41211ED04FF0006343EA501020
:1001400043EA5111A0FB01310CF00040B1F5000F62
:100150003EBF490041EAD3715B0040EA010062F111
:100160007F02FD2A1DD8B3F1004F40EBC25008BFFB
:1001700020F00100704790F0000F0CF0004C08BF19
:1001800049024CEA502040EA51207F3AC2BFD2F1E6
:10019000FF0340EAC250704740F400004FF00003F4
:1001A000013A5DDC12F1190FDCBF00F0004070472E
:1001B000C2F10002410021FA02F1C2F1200200FA6C
:1001C00002FC5FEA310040F1000053EA4C0308BF33
:1001D00020EADC70704792F0000F00F0004C02BF84
:1001E000400010F4000F013AF9D040EA0C0093F0FF
:1001F000000F01F0004C02BF490011F4000F013B59
:10020000F9D041EA0C018FE70CEAD15392EA0C0FC6
:1002100018BF93EA0C0F0AD030F0004C18BF31F031
:10022000004CD8D180EA010000F00040704790F007
:10023000000F17BF90F0004F084691F0000F91F0AB
:10024000004F14D092EA0C0F01D142020FD193EA71
:100250000C0F03D14B0218BF084608D180EA0100F9
:1002600000F0004040F0FE4040F40000704740F0D5
:10027000FE4040F44000704780F0004002E000BFC4
:1002800081F0004142001FBF5FEA410392EA030F81
:100290007FEA226C7FEA236C6AD04FEA1262D2EBCB
:1002A0001363C1BFD218414048404140B8BF5B42D0
:1002B000192B88BF704710F0004F40F4000020F069
:1002C0007F4018BF404211F0004F41F4000121F07F
:1002D0007F4118BF494292EA030F3FD0A2F10102C9
:1002E00041FA03FC10EB0C00C3F1200301FA03F107
:1002F00000F0004302D5494260EB4000B0F5000F2A
:1003000013D3B0F1807F06D340084FEA310102F1E8
:100310000102FE2A51D2B1F1004F40EBC25008BF9A
:1003200020F0010040EA03007047490040EB000064
:10033000013A28BFB0F5000FEDD2B0FA80FCACF165
:10034000080CB2EB0C0200FA0CF0AABF00EBC25092
:1003500052421843BCBFD0401843704792F0000F80
:1003600081F4000106BF80F400000132013BB5E7D3
:100370004FEA41037FEA226C18BF7FEA236C21D049
:1003800092EA030F04D092F0000F08BF08467047AE
:1003900090EA010F1CBF0020704712F07F4F04D17C
:1003A000400028BF40F00040704712F100723CBF8F
:1003B00000F50000704700F0004343F0FE4040F4B9
:1003C000000070477FEA226216BF08467FEA236377
:1003D0000146420206BF5FEA412390EA010F40F462
:1003E000800070474FF0000304E000BF10F00043AE
:1003F00048BF40425FEA000C08BF704743F0964395
:1004000001464FF000001CE050EA010208BF7047AF
:100410004FF000030AE000BF50EA010208BF704736
:1004200011F0004302D5404261EB41015FEA010C4B
:1004300002BF84460146002043F0B64308BFA3F143
:100440008053A3F50003BCFA8CF2083AA3EBC25325
:1004500010DB01FA02FC634400FA02FCC2F1200244
:10046000BCF1004F20FA02F243EB020008BF20F07B
:100470000100704702F1200201FA02FCC2F12002E1
:1004800050EA4C0021FA02F243EB020008BF20EAD6
:10049000DC70704742000ED2B2F1FE4F0BD34FF02A
:1004A0009E03B3EB126209D44FEA002343F00043EA
:1004B00023FA02F070474FF00000704712F1610F0D
:1004C00001D1420202D14FF0FF3070474FF00000DF
:1004D000704700BF844641EA000313F0030349D18B
:1004E000403A23D30B6803604B6843608B6883609A
:1004F000CB68C3600B6903614B6943618B6983619E
:10050000CB69C3610B6A03624B6A43628B6A836285
:10051000CB6AC3620B6B03634B6B43638B6B83636D
:10052000CB6BC36340304031403ADBD230320BD327
:100530000B6803604B6843608B688360CB68C36063
:1005400010301031103AF3D20C3205D351F8043B7D
:1005500040F8043B043AF9D2043208D0D2071CBF59
:1005600011F8013B00F8013B01D30B880380604682
:10057000704700BF082A13D38B07B1D010F00303D4
:10058000AED0C3F10403D21ADB071CBF11F8013B44
:1005900000F8013BA4D331F8023B20F8023B9FE76F
:1005A000043AD9D3013A11F8013B00F8013BF9D2E2
:1005B0000B7803704B7843708B788370604670477C
:1005C00081F0004102E000BF83F0004330B54FEA04
:1005D00041044FEA430594EA050F08BF90EA020F71
:1005E0001FBF54EA000C55EA020C7FEA645C7FEA04
:1005F000655C00F0E2804FEA5454D4EB5555B8BF27
:100600006D420CDD2C4480EA020281EA030382EA97
:10061000000083EA010180EA020281EA0303362D29
:1006200088BF30BD11F0004F4FEA01314FF4801CFC
:100630004CEA113102D0404261EB410113F0004F0E
:100640004FEA03334CEA133302D0524263EB4303C5
:1006500094EA050F00F0A780A4F10104D5F1200E63
:100660000DDB02FA0EFC22FA05F2801841F10001BE
:1006700003FA0EF2801843FA05F359410EE0A5F192
:1006800020050EF1200E012A03FA0EFC28BF4CF0C3
:10069000020C43FA05F3C01851EBE37101F0004579
:1006A00007D54FF0000EDCF1000C7EEB00006EEB86
:1006B0000101B1F5801F1BD3B1F5001F0CD3490810
:1006C0005FEA30004FEA3C0C04F101044FEA445267
:1006D00012F5800F80F09A80BCF1004F08BF5FEAEE
:1006E000500C50F1000041EB045141EA050130BDCE
:1006F0005FEA4C0C404141EB0101013C28BFB1F5E0
:10070000801FE9D291F0000F04BF01460020B1FA2A
:1007100081F308BF2033A3F10B03B3F120020CDAFD
:100720000C3208DD02F1140CC2F10C0201FA0CF0DB
:1007300021FA02F10CE002F11402D8BFC2F1200C40
:1007400001FA02F120FA0CFCDCBF41EA0C019040F6
:10075000E41AA2BF01EB0451294330BD6FEA04043F
:100760001F3C1CDA0C340EDC04F11404C4F120022A
:1007700020FA04F001FA02F340EA030021FA04F33C
:1007800045EA030130BDC4F10C04C4F1200220FA93
:1007900002F001FA04F340EA0300294630BD21FAD1
:1007A00004F0294630BD94F0000F83F4801306BF97
:1007B00081F480110134013D4EE77FEA645C18BF8B
:1007C0007FEA655C29D094EA050F08BF90EA020F22
:1007D00005D054EA000C04BF1946104630BD91EA1A
:1007E000030F1EBF0021002030BD5FEA545C05D11D
:1007F0004000494128BF41F0004130BD14F580045C
:100800003CBF01F5801130BD01F0004545F0FE41CF
:1008100041F470014FF0000030BD7FEA645C1ABF04
:10082000194610467FEA655C1CBF0B46024650EA3B
:10083000013406BF52EA033591EA030F41F4002167
:1008400030BD00BF90F0000F04BF0021704730B5ED
:100850004FF4806404F132044FF000054FF00001C2
:1008600050E700BF90F0000F04BF0021704730B583
:100870004FF4806404F1320410F0004548BF404258
:100880004FF000013EE700BF42004FEAE2014FEAAD
:1008900031014FEA02701FBF12F07F4393F07F4F88
:1008A00081F06051704732F07F4208BF704793F08B
:1008B0007F4F04BF41F40021704730B54FF460749E
:1008C00001F0004521F000411CE700BF50EA0102A1
:1008D00008BF704730B54FF000050AE050EA01024A
:1008E00008BF704730B511F0004502D5404261EBBA
:1008F00041014FF4806404F132045FEA915C3FF4FB
:10090000D8AE4FF003025FEADC0C18BF03325FEA97
:10091000DC0C18BF033202EBDC02C2F1200300FA48
:1009200003FC20FA02F001FA03FE40EA0E0021FA6D
:1009300002F11444BDE600BF70B54FF0FF0C4CF45B
:10094000E06C1CEA11541DBF1CEA135594EA0C0F0D
:1009500095EA0C0F00F0DEF82C4481EA030621EA48
:100960004C5123EA4C5350EA013518BF52EA033583
:1009700041F4801143F4801338D0A0FB02CE4FF035
:100980000005E1FB02E506F00042E0FB03E54FF065
:100990000006E1FB03569CF0000F18BF4EF0010E5D
:1009A000A4F1FF04B6F5007F64F5407404D25FEA59
:1009B0004E0E6D4146EB060642EAC62141EA55510C
:1009C0004FEAC52040EA5E504FEACE2EB4F1FD0C4E
:1009D00088BFBCF5E06F1ED8BEF1004F08BF5FEACC
:1009E000500E50F1000041EB045170BD06F000467E
:1009F00046EA010140EA020081EA0301B4EB5C042B
:100A0000C2BFD4EB0C0541EA045170BD41F4801122
:100A10004FF0000E013C00F3AB8014F1360FDEBF47
:100A2000002001F0004170BDC4F10004203C35DA23
:100A30000C341BDC04F11404C4F1200500FA05F3A6
:100A400020FA04F001FA05F240EA020001F0004247
:100A500021F0004110EBD37021FA04F642EB0601BD
:100A60005EEA430E08BF20EAD37070BDC4F10C04E7
:100A7000C4F1200500FA04F320FA05F001FA04F2AB
:100A800040EA020001F0004110EBD37041F1000197
:100A90005EEA430E08BF20EAD37070BDC4F12005A2
:100AA00000FA05F24EEA020E20FA04F301FA05F20A
:100AB00043EA020321FA04F001F0004121FA04F2B2
:100AC00020EA020000EBD3705EEA430E08BF20EA82
:100AD000D37070BD94F0000F0FD101F000464000BC
:100AE00041EB010111F4801F08BF013CF7D041EA3E
:100AF000060195F0000F18BF704703F00046520042
:100B000043EB030313F4801F08BF013DF7D043EA12
:100B10000603704794EA0C0F0CEA135518BF95EAC8
:100B20000C0F0CD050EA410618BF52EA4306D1D14F
:100B300081EA030101F000414FF0000070BD50EA6E
:100B4000410606BF1046194652EA430619D094EAF8
:100B50000C0F02D150EA013613D195EA0C0F05D1E2
:100B600052EA03361CBF104619460AD181EA030136
:100B700001F0004141F0FE4141F470014FF00000EE
:100B800070BD41F0FE4141F4780170BD70B54FF089
:100B9000FF0C4CF4E06C1CEA11541DBF1CEA135509
:100BA00094EA0C0F95EA0C0F00F0A7F8A4EB0504EB
:100BB00081EA030E52EA03354FEA013100F08880E2
:100BC0004FEA03334FF0805545EA131343EA1263AB
:100BD0004FEA022245EA111545EA10654FEA002660
:100BE0000EF000419D4208BF964244F1FD0404F519
:100BF000407402D25B084FEA3202B61A65EB030575
:100C00005B084FEA32024FF480104FF4002CB6EB31
:100C1000020E75EB030E22BFB61A754640EA0C00B1
:100C20005B084FEA3202B6EB020E75EB030E22BFF1
:100C3000B61A754640EA5C005B084FEA3202B6EB32
:100C4000020E75EB030E22BFB61A754640EA9C00F1
:100C50005B084FEA3202B6EB020E75EB030E22BFC1
:100C6000B61A754640EADC0055EA060E18D04FEA7F
:100C7000051545EA16754FEA06164FEAC30343EA1F
:100C800052734FEAC2025FEA1C1CC0D111F4801FEC
:100C90000BD141EA00014FF000004FF0004CB6E7E5
:100CA00011F4801F04BF01430020B4F1FD0C88BF84
:100CB000BCF5E06F3FF6AFAEB5EB030C04BFB6EB8F
:100CC000020C5FEA500C50F1000041EB045170BD82
:100CD0000EF0004E4EEA113114EB5C04C2BFD4EBAF
:100CE0000C0541EA045170BD41F480114FF0000E33
:100CF000013C90E645EA060E8DE60CEA135594EAAF
:100D00000C0F08BF95EA0C0F3FF43BAF94EA0C0FB1
:100D10000AD150EA01347FF434AF95EA0C0F7FF426
:100D200025AF104619462CE795EA0C0F06D152EA7A
:100D300003353FF4FDAE1046194622E750EA41065E
:100D400018BF52EA43067FF4C5AE50EA41047FF46F
:100D50000DAF52EA43057FF4EBAE12E74FF0FF3CD4
:100D600006E000BF4FF0010C02E000BF4FF0010CA5
:100D70004DF804CD4FEA410C7FEA6C5C4FEA430C1E
:100D800018BF7FEA6C5C1BD001B050EA410C0CBF6D
:100D900052EA430C91EA030F02BF90EA020F0020CF
:100DA000704710F1000F91EA030F58BF994208BF36
:100DB00090422CBFD8176FEAE37040F001007047F3
:100DC0004FEA410C7FEA6C5C02D150EA013C07D14A
:100DD0004FEA430C7FEA6C5CD6D152EA033CD3D095
:100DE0005DF8040B704700BF8446104662468C468F
:100DF0001946634600E000BF01B5FFF7B7FF0028C2
:100E000048BF10F1000F01BD4DF808EDFFF7F4FFEA
:100E10000CBF012000205DF808FB00BF4DF808ED75
:100E2000FFF7EAFF34BF012000205DF808FB00BF98
:100E30004DF808EDFFF7E0FF94BF012000205DF8BA
:100E400008FB00BF4DF808EDFFF7CEFF94BF01206F
:100E500000205DF808FB00BF4DF808EDFFF7C4FF68
:100E600034BF012000205DF808FB00BF4FEA410CB1
:100E70007FEA6C5C02D150EA013C0AD14FEA430C94
:100E80007FEA6C5C02D152EA033C02D14FF00000D1
:100E900070474FF0010070474FEA410212F500120F
:100EA00015D211D56FF47873B3EB625212D94FEAB1
:100EB000C12343F0004343EA505311F0004F23FA9B
:100EC00002F018BF404270474FF00000704750EAF0
:100ED000013005D111F0004008BF6FF000407047AD
:100EE0004FF00000704700BF0348044B834202D01C
:100EF000034B03B118477047F0060020F0060020AE
:100F0000000000000548064B1B1AD90F01EBA30196
:100F1000491002D0034B03B118477047F006002078
:100F2000F00600200000000010B5064C237843B9FD
:100F3000FFF7DAFF044B13B10448AFF3008001233D
:100F4000237010BDF006002000000000649D000822
:100F500008B5054B1BB105490548AFF30080BDE856
:100F60000840FFF7CFBF00BF00000000F4060020DC
:100F7000649D000808B500224FF48051014800F03C
:100F8000A1FD08BD000C014008B501224FF48051BD
:100F9000014800F097FD08BD000C014000B583B08A
:100FA0004FF0FF3301220DF10701044801F0C7FBA8
:100FB0009DF8070003B05DF804FB00BFB4070020F4
:100FC00000B583B08DF807004FF0FF3301220DF11B
:100FD0000701034801F0B5F903B05DF804FB00BF59
:100FE000B40700202DE9F04188B000240494059452
:100FF00006940794264B9A6942F010029A619A6906
:1010000002F010020092009A9A6942F020029A615E
:101010009A6902F020020192019A9A6942F0040250
:101020009A619A6902F004020292029A9A6942F065
:1010300008029A619B6903F008030393039BDFF89E
:10104000548022464FF40051404600F03BFD124DC3
:1010500022464FF48051284600F034FD4FF40053EF
:1010600004930127059706940226079604A9404693
:1010700000F01AFC4FF480530493059706940796EA
:1010800004A9284600F010FC08B0BDE8F08100BFBC
:101090000010024000100140000C014010B50C4649
:1010A000084603F0BBF94FF6FF7382B221460248AF
:1010B00001F0F6FC10BD00BF6C07002000B583B046
:1010C00036494FF0FF30FFF7E9FF002341F2883245
:1010D0000121184602F016F978B931494FF0FF3076
:1010E000FFF7DCFF002002F0BDF901280DD02D49EB
:1010F0004FF0FF30FFF7D2FF04E02B494FF0FF30F5
:10110000FFF7CCFF03B05DF804FB28494FF0FF3038
:10111000FFF7C4FF07E0C82000F048FB4FF4005180
:10112000234800F0D5FC4FF4427001F049FF142829
:10113000F1D020494FF0FF30FFF7B0FF4FF442707D
:1011400001F03EFF172805D01B494FF0FF30FFF795
:10115000A5FFD7E701AA0421002002F04BFA0DF108
:1011600002020521002002F045FA0C22134900205A
:1011700002F0AEF9C0B20C2809D111494FF0FF308E
:10118000FFF78CFF4FF47A7000F010FBEDE70D498C
:101190004FF0FF30FFF782FFB4E700BF889D0008E3
:1011A000B09D0008CC9D00089C9D0008E49D0008AF
:1011B00000100140149E0008289E00088C9E000824
:1011C000409E00084C9E000872B6FEE708B50A482B
:1011D0000A4B03604FF4E133436000238360C36034
:1011E00003610C2242618361C36101F0F3FB00B92A
:1011F00008BDFFF7E9FF00BF6C0700200038014081
:1012000008B50A480A4B03604FF4E13343600023FA
:101210008360C36003610C2242618361C36101F09A
:1012200009FC00B908BDFFF7CFFF00BF240700206D
:101230000044004008B50D480D4B03604FF4827325
:10124000436000238360C360036143614FF4007215
:101250008261C3610362436283620A23C36201F055
:1012600015F800B908BDFFF7AFFF00BFB4070020B5
:101270000038004000B591B02822002106A802F0F5
:101280009DFF00230193029303930493059301228E
:1012900006924FF4803307930A9202220D920E9326
:1012A0004FF4E0130F9306A800F032FC80B90F232F
:1012B000019302210291002303934FF48062049270
:1012C000059301A800F056FE20B911B05DF804FBAB
:1012D000FFF77AFFFFF778FF30B5A3B000F042FACE
:1012E000FFF7C8FFFFF77EFEFFF770FFFFF788FFED
:1012F000FFF7A0FF514D524C0A23062229462046F3
:1013000001F0CEFB4F49504802F032FA4F495048A5
:1013100002F040FA4FF00233219321A9084602F06F
:101320008DFA00231B931C931D931E931F93CDF8DE
:101330007F30484B93E803001B90ADF87010464B8C
:101340001868CDF87200454B1868CDF87600444B0C
:101350001868CDF87A001BA802F0B6FA1BA802F0B4
:10136000E1FAFFF7ABFE0A2306222946204601F0E8
:1013700097FB3C4C3C49204601F084FD204601F09F
:1013800047FD204601F056FD204601F0E5FCE37BD9
:101390008DF80430A37B8DF805307F238DF806305F
:1013A000204601F035FD204601F05EFD01A92046F2
:1013B00001F01CFD2B4C204601F02AFD204601F0D7
:1013C00053FD0121204601F095FC204601F020FD4F
:1013D000204601F049FD204601F0BEFC6569284623
:1013E000FFF758F80446FEF7FDFF01462846FEF7D2
:1013F00047FF1E49FEF78CFEFFF74CF883B22246EA
:101400001B4902A802F070FE02A803F007F8572358
:1014100000FB03F3174A82FB0312DB17C3EBA21393
:101420009BB205339BB2C2B202A9054801F038FB5A
:101430004FF4FA6000F0BAF9BCE700BF609E000804
:101440006C070020890F0008750F0008C10F000805
:101450009D0F0008809D0008789E0008809E00086F
:10146000849E00080C070020240700200000C842CA
:10147000689E0008D34D621082B00E4B9A6942F00C
:1014800001029A619A6902F001020092009ADA69F7
:1014900042F08052DA61DB6903F080530193019BD3
:1014A000054A536823F0E06343F00073536002B0D1
:1014B000704700BF001002400000014010B586B028
:1014C000002302930393049305930268174B9A42F7
:1014D00001D006B010BD03F5EC33DA6942F4804266
:1014E000DA61DA6902F480420092009A9A6942F065
:1014F00008029A619B6903F008030193019B4FF472
:10150000204302930223039303230593084C02A96B
:10151000204600F0C9F94FF480430293002303935F
:10152000049302A9204600F0BFF9D2E7003800403A
:10153000000C014010B588B0002304930593069376
:1015400007930368274A934204D0274A93422BD03B
:1015500008B010BD254B9A6942F480429A619A699D
:1015600002F480420092009A9A6942F004029A6161
:101570009B6903F004030193019B4FF400730493F0
:101580000223059303230793194C04A9204600F076
:101590008BF94FF48063049300230593069304A909
:1015A000204600F081F9D3E7104BDA6942F40032AB
:1015B000DA61DA6902F400320292029A9A6942F020
:1015C00004029A619B6903F004030393039B0423C1
:1015D0000493122305930323079304A9044800F0FE
:1015E00063F9B5E7003801400044004000100240B4
:1015F00000080140FEE7FEE7FEE7FEE7FEE7704772
:101600007047704708B500F0BFF808BD012070476B
:1016100008B502F0BFFE162303604FF0FF3008BD8F
:1016200008B54FF0FF31FFF7F3FFFEE770B50C464A
:101630001646002506E0AFF30080214601F8010BB5
:1016400001350C46B542F6DB304670BD70B50C4630
:101650001646002504E014F8010BAFF300800135B5
:10166000B542F8DB304670BD4FF0FF3070474FF4A5
:1016700000534B60002070470120704700207047E6
:1016800010B503460C4A0D490D48006840B10C489E
:1016900000680344521A934206D8094A136010BDE9
:1016A0000748084C0460F2E702F074FE0C23036064
:1016B0004FF0FF30F3E700BF0050002000040000AF
:1016C0000C080020500B002070470000FFF7FCFFC3
:1016D0000B480C490C4A002302E0D458C450043390
:1016E000C4188C42F9D3094A094C002301E0136065
:1016F0000432A242FBD302F053FEFFF7EDFD704728
:1017000000000020F0060020ECA20008F0060020F7
:101710004C0B0020FEE7000010B504460E4B1A7873
:101720004FF47A73B3FBF2F30C4A1068B0FBF3F09A
:1017300000F0A6F868B90F2C01D901200AE00022B8
:1017400021464FF0FF3000F08BF8054B1C60002065
:1017500000E0012010BD00BF0400002000000020B8
:101760000800002008B5074A136843F0100313600F
:10177000032000F063F80F20FFF7CEFFFFF77CFE99
:10178000002008BD00200240034A1168034B1B786B
:101790000B441360704700BF1008002004000020B5
:1017A000014B1868704700BF1008002038B5044688
:1017B000FFF7F6FF0546B4F1FF3F02D0044B1B785C
:1017C0001C44FFF7EDFF401BA042FAD338BD00BF19
:1017D00004000020002808DB0901C9B200F16040C4
:1017E00000F5614080F80013704700F00F00090118
:1017F000C9B2014B1954704714ED00E000B500F078
:101800000700C0F1070CBCF1040F28BF4FF0040C17
:10181000031D062B0FD9C31E4FF0FF3E0EFA0CF02E
:1018200021EA000199400EFA03FE22EA0E0241EA83
:1018300002005DF804FB0023EEE70000074AD368CE
:1018400023F4E0631B041B0C000200F4E06003437C
:1018500043F0BF6343F40033D360704700ED00E012
:1018600010B50446054BD868C0F30220FFF7C6FF49
:1018700001462046FFF7AEFF10BD00BF00ED00E0BF
:101880000138B0F1807F0BD24FF0E0235861054A58
:10189000F02182F823100020986107221A61704716
:1018A0000120704700ED00E070B582B00024A4462E
:1018B000A2E07E4DAB4210D007D97D4DAB420CD09B
:1018C00005F58035AB4208D013E0A5F58015AB4295
:1018D00003D005F57025AB4207D18B68002B55D09E
:1018E000012B4ED04261082403E0A5F58015AB42E0
:1018F000F3D0BEF1FF0F4BD806464FEA8C02336897
:101900000F25954023EA050304FA02F213433360DE
:101910004B6813F0805F6DD0664B9A6942F001020C
:101920009A619B6903F001030193019B4FEA9C02BA
:10193000951C614B53F825600CF00305AD000F2397
:10194000AB4026EA03065D4B984228D003F580633E
:10195000984200F08D8003F58063984200F08A8001
:1019600003F58063984218D0042319E0CC68C0E7DF
:10197000CC680434BDE7CC680834BAE7CC680C34D2
:10198000B7E702610824B4E70024B2E70424B0E713
:10199000061DACF108029200B1E7032300E000232A
:1019A000AB4033430232444D45F822304B6813F4C8
:1019B000801F61D0424A936843EA0E0393604B68EC
:1019C00013F4001F5ED03E4AD36843EA0E03D3608F
:1019D0004B6813F4003F5BD0394A536843EA0E0367
:1019E00053604B6813F4803F58D0354A136843EA7C
:1019F0000E0313600CF1010C0B6833FA0CF253D098
:101A0000012202FA0CF203EA020E32EA0303F1D1D8
:101A10004B68122B3FF64DAF122B3FF66AAF01A574
:101A200055F823F0DB1800086D1900087719000835
:101A300089190008F3180008F3180008F3180008C3
:101A4000F3180008F3180008F3180008F31800084A
:101A5000F3180008F3180008F3180008F31800083A
:101A6000F3180008F3180008711900087D19000820
:101A7000012395E7022393E7114A936823EA0E03B3
:101A800093609CE70E4AD36823EA0E03D3609FE776
:101A90000B4A536823EA0E035360A2E7084A13680F
:101AA00023EA0E031360A5E702B070BD0000221008
:101AB0000000311000100240000001400008014009
:101AC000000401400AB101617047090401617047D7
:101AD000C36801EA030221EA030141EA024101610C
:101AE0007047000082B0084B1B68084AA2FB032322
:101AF0005B0A00FB03F3019300BF019B5A1E019296
:101B0000002BF9D102B0704700000020D34D6210C5
:101B1000002800F0F18170B582B00446036813F02C
:101B2000010F2CD0994B5B6803F00C03042B1DD0E4
:101B3000964B5B6803F00C03082B12D06368B3F577
:101B4000803F41D0002B55D103F1804303F504338E
:101B50001A6822F480321A601A6822F480221A600D
:101B600037E08A4B5B6813F4803FE7D0874B1B68F4
:101B700013F4003F03D06368002B00F0BF8123689B
:101B800013F0020F75D0814B5B6813F00C0F5FD020
:101B90007E4B5B6803F00C03082B54D02369002BA9
:101BA00000F08A807A4B01221A60FFF7F9FD0546A2
:101BB000764B1B6813F0020F75D1FFF7F1FD401B48
:101BC0000228F5D903209EE1704A136843F480335C
:101BD0001360636843B3FFF7E3FD05466B4B1B6877
:101BE00013F4003FCBD1FFF7DBFD401B6428F5D990
:101BF000032088E1B3F5A02F09D0644B1A6822F4C2
:101C000080321A601A6822F480221A60E1E703F138
:101C10008043A3F53C331A6842F480221A601A68A4
:101C200042F480321A60D4E7FFF7BAFD0546574BFD
:101C30001B6813F4003FA2D0FFF7B2FD401B6428DD
:101C4000F5D903205FE1514B5B6813F4803FA5D1C8
:101C50004E4B1B6813F0020F03D02369012B40F099
:101C60004F814A4A136823F0F803616943EAC103CC
:101C70001360236813F0080F33D0A369002B5CD0E6
:101C8000434B0122C3F88024FFF78AFD05463F4BF2
:101C90005B6A13F0020F21D1FFF782FD401B02287F
:101CA000F5D903202FE1394A136823F0F80361695D
:101CB00043EAC1031360DCE7354B00221A60FFF7EB
:101CC0006FFD0546314B1B6813F0020FD1D0FFF7B3
:101CD00067FD401B0228F5D9032014E10120FFF71E
:101CE00001FF236813F0040F00F09680274BDB6997
:101CF00013F0805F34D1254BDA6942F08052DA610B
:101D0000DB6903F080530193019B0125214B1B6884
:101D100013F4807F26D0E368012B3DD0002B53D1F4
:101D200003F1804303F504331A6A22F001021A62B8
:101D30001A6A22F004021A6233E0154B0022C3F83B
:101D40008024FFF72DFD0546104B5B6A13F0020F50
:101D5000C7D0FFF725FD401B0228F5D90320D2E0AC
:101D60000025D3E70B4A136843F480731360FFF731
:101D700017FD0646074B1B6813F4807FCBD1FFF796
:101D80000FFD801B6428F5D90320BCE00010024041
:101D900000004242007000405F4A136A43F00103B2
:101DA0001362E36833B3FFF7FBFC06465A4B1B6A2A
:101DB00013F0020F2FD1FFF7F3FC801B41F28833A1
:101DC0009842F3D903209EE0052B09D0524B1A6AA2
:101DD00022F001021A621A6A22F004021A62E0E793
:101DE0004D4B1A6A42F004021A621A6A42F001026A
:101DF0001A62D6E7FFF7D4FC0646474B1B6A13F07E
:101E0000020F08D0FFF7CCFC801B41F288339842C8
:101E1000F3D9032077E0E5B9E369002B72D03E4A9D
:101E2000526802F00C02082A56D0022B17D03B4B06
:101E300000221A66FFF7B4FC0446374B1B6813F008
:101E4000007F47D0FFF7ACFC001B0228F5D9032028
:101E500059E0314AD36923F08053D361DCE72F4B3B
:101E600000221A66FFF79CFC05462B4B1B6813F0FB
:101E7000007F06D0FFF794FC401B0228F5D9032011
:101E800041E0236AB3F5803F1AD023494B6823F41D
:101E90007413226A606A024313434B601F4B012292
:101EA0001A66FFF77DFC04461B4B1B6813F0007F8E
:101EB0000ED1FFF775FC001B0228F5D9032022E0A4
:101EC000154A536823F40033A1680B435360DCE7E1
:101ED000002018E0002016E0012B16D00E4B5B68A6
:101EE00003F48031226A914211D103F47013626AC3
:101EF00093420ED1002006E001207047012002E04D
:101F0000012000E0002002B070BD0120FBE70120AD
:101F1000F9E70120F7E700BF00100240000042424D
:101F20000F4B5B6803F00C02082A01D00D48704784
:101F3000C3F383420C49885C13F4803F0BD0084BF9
:101F40005B68C3F34043094AD35C064A02FB00F0D6
:101F5000B0FBF3F07047064B03FB00F0704700BF87
:101F60000010024000127A00B89E0008B49E0008DB
:101F700000093D00002800F0A08070B50D46044621
:101F8000524B1B6803F007038B420BD24F4A136876
:101F900023F007030B431360136803F007038B421E
:101FA00040F08D80236813F0020F17D013F0040F58
:101FB00004D0474A536843F4E0635360236813F046
:101FC000080F04D0424A536843F460535360404AB8
:101FD000536823F0F003A1680B435360236813F0A8
:101FE000010F31D06368012B20D0022B25D0384A55
:101FF000126812F0020F64D035494A6822F00302D9
:1020000013434B60FFF7CCFB0646314B5B6803F094
:102010000C036268B3EB820F16D0FFF7C1FB801B85
:1020200041F288339842F0D9032045E0284A1268EB
:1020300012F4003FE0D101203EE0254A126812F080
:10204000007FD9D1012037E0204B1B6803F0070344
:10205000AB420AD91D4A136823F007032B431360D0
:10206000136803F00703AB422DD1236813F0040F6C
:1020700006D0174A536823F4E063E1680B435360CA
:10208000236813F0080F07D0114A536823F46053F4
:10209000216943EAC1035360FFF742FF0C4B5B68C1
:1020A000C3F303130B4AD35CD8400B4B18600B4BA4
:1020B0001868FFF731FB002070BD01207047012038
:1020C000FAE70120F8E70120F6E700BF0020024010
:1020D00000100240A49E000800000020080000201C
:1020E000014B1868704700BF0000002008B5FFF7DB
:1020F000F7FF044B5B68C3F30223034AD35CD84069
:1021000008BD00BF001002409C9E000808B5FFF704
:10211000E7FF044B5B68C3F3C223034AD35CD84098
:1021200008BD00BF001002409C9E00082DE9F0474A
:1021300082B00546884617461E46FFF731FB0A9BCC
:102140001B1A03EB0609FFF72BFB8246284B1B6883
:10215000C3F3CB3309FB03F301932B689C6838EA84
:1021600004040CBF01230023BB423DD0B6F1FF3F66
:10217000F3D0FFF715FBA0EB0A00484507D2019A00
:1021800002B14A46019B013B01939146E5E72A686B
:10219000536823F0E00353606B68B3F5827F0BD084
:1021A000AB6AB3F5005F14D0012385F851300023EA
:1021B00085F85030032018E0AB68B3F5004F02D02B
:1021C000B3F5806FECD12A68136823F040031360E5
:1021D000E6E72A68136823F4005313602A6813683B
:1021E00043F400531360DFE7002002B0BDE8F0873E
:1021F0000000002010B582B004460B460092002279
:102200008021FFF793FF08B902B010BD636D43F062
:10221000200363650320F7E710B582B004460B4640
:102220004168B1F5827F10D06168B1F5827F03D13A
:10223000A168B1F5806F15D0009200228021204660
:10224000FFF774FFE0B902B010BD8168B1F5004F2F
:1022500002D0B1F5806FE7D12068016821F040011C
:102260000160E1E70092002201212046FFF75EFFB6
:102270000028E8D0636D43F0200363650320E2E7A4
:10228000636D43F0200363650320DCE7002856D02C
:1022900010B50446436A33B94368B3F5827F05D06D
:1022A0000023C36102E00023036143610023A362B2
:1022B00094F85130002B3CD0022384F8513022682E
:1022C000136823F040031360636803F48273A26809
:1022D00002F404421343E26802F4006213432269E9
:1022E00002F002021343626902F001021343A26981
:1022F00002F400721343E26902F038021343226AC7
:1023000002F080021343A26A02F4005221681343D0
:102310000B60638B226803F0040353602268D36967
:1023200023F40063D36100206065012384F85130F9
:1023300010BD84F850302046FFF7C0F8BCE70120FC
:1023400070472DE9F04383B01D4690F85030012BC3
:1023500000F0D180044688469146012380F8503031
:10236000FFF71EFA074694F85160F6B2012E40F0CE
:10237000BA80B8F1000F00F0B780B9F1000F00F09B
:10238000B380032384F8513000236365C4F83080A0
:10239000A4F83490A4F83690A363A387E38763641A
:1023A0002364A368B3F5004F1ED023681A6812F0A7
:1023B000400F03D11A6842F040021A60E368B3F597
:1023C000006F1CD0636813B1B9F1010F55D1226BB6
:1023D000236812781A73236B01332363E38E9BB255
:1023E000013B9BB2E38648E02268136823F0400378
:1023F00013602268136843F480431360D5E7636871
:1024000013B1B9F1010F15D1226B23681288DA607C
:10241000236B02332363E38E9BB2013B9BB2E386C3
:1024200008E0FFF7BDF9C01BA84202D3B5F1FF3F9A
:1024300015D1A5B1E38E9BB2002B3CD023689A68DE
:1024400012F0020FEDD0226B1288DA60236B023398
:102450002363E38E9BB2013B9BB2E386EAE7012351
:1024600084F8513003263FE0FFF79AF9C01BA842D9
:1024700002D3B5F1FF3F19D1C5B1E38E9BB2D3B101
:1024800023689A6812F0020FEED0226B12781A734A
:10249000236B01332363B4F836C01FFA8CFC0CF1B4
:1024A000FF3C1FFA8CFCA4F836C0E6E7012384F851
:1024B0005130032618E03A4629462046FFF79AFE97
:1024C00008B120236365A36833B901932368DA68F0
:1024D00001929B680193019B636D2BB9012384F8E2
:1024E0005130002600E00226002384F850303046A8
:1024F00003B0BDE8F0830226F9E72DE9F04383B08D
:102500001F460A9D90F85030012B00F016810446BA
:1025100088469146012380F85030FFF741F906467E
:1025200094F85130DBB26268012B0AD0B2F5827F99
:1025300040F0F080A268002A40F0F380042B40F0C5
:10254000F280B8F1000F00F0F080B9F1000F00F058
:10255000EE80002F00F0ED8094F85130DBB2042BB8
:1025600002D0052384F8513000236365C4F8389005
:10257000E787A787C4F83080E786A786236463646B
:1025800023681A6812F0400F03D11A6842F0400223
:102590001A60E368B3F5006F11D063680BB1012FC7
:1025A0000BD1226B236812781A73236B01332363D8
:1025B000E38E9BB2013B9BB2E38601276EE063682A
:1025C0000BB1012F0BD1226B23681288DA60236BC9
:1025D00002332363E38E9BB2013B9BB2E386012768
:1025E0001BE023689A6812F0010F0ED0E28F92B2BE
:1025F0005AB1DA68A36B1A80A36B0233A363E38F2B
:102600009BB2013B9BB2E3870127FFF7C9F8801B10
:10261000A84202D3B5F1FF3F1ED1E38E9BB21BB996
:10262000E38F9BB2002B5CD023689A6812F0020FF4
:10263000D7D0E28E92B2002AD3D0002FD1D0226B15
:102640001288DA60236B02332363E38E9BB2013B73
:102650009BB2E3860027C4E7012384F851300320AE
:1026600059E023689A6812F0010F0ED0E28F92B2FF
:102670005AB1DA68A36B1A70A36B0133A363E38FBB
:102680009BB2013B9BB2E3870127FFF789F8831BCD
:10269000AB4202D3B5F1FF3F1ED1EDB1E38E9BB249
:1026A00013B9E38F9BB2E3B123689A6812F0020F6B
:1026B000D7D0E28E92B2002AD3D0002FD1D0226B95
:1026C00012781A73236B01332363E38E9BB2013BB1
:1026D0009BB2E3860027C4E7012384F8513003202E
:1026E00019E0324629462046FFF784FD70B9A368F9
:1026F00033B901932368DA6801929B680193019BC7
:10270000636DC3B9012384F8513004E0202363656D
:10271000012000E00220002384F8503003B0BDE81F
:10272000F0830220F7E70220F5E70120F3E701201C
:10273000F1E70120EFE70120EDE70220EEE72DE9C8
:10274000F04383B0044690F85160F6B2012E40F099
:10275000AB80884691461D464368B3F5827F32D0F0
:1027600094F85030012B00F0A780012384F85030FA
:10277000FFF716F80746B8F1000F00F09680B9F1A0
:10278000000F00F09280042384F851300023636529
:10279000C4F83880A4F83C90A4F83E902363A38644
:1027A000E38623646364A368B3F5004F18D02368FD
:1027B0001A6812F0400F03D11A6842F040021A6002
:1027C000E3680BB343E08368002BC9D1042380F88E
:1027D0005130009513460A46FFF78FFE064667E024
:1027E0002268136823F0400313602268136823F4FF
:1027F00080431360DBE7FEF7D3FFC01BA84202D380
:10280000B5F1FF3F15D1A5B1E38F9BB2002B3CD0B2
:1028100023689A6812F0010FEDD0A26B1B7B137036
:10282000A36B0133A363E38F9BB2013B9BB2E387AE
:10283000EAE7012384F85130032636E0FEF7B0FFC3
:10284000C01BA84202D3B5F1FF3F19D1C5B1E38F38
:102850009BB2D3B123689A6812F0010FEED0DA6808
:10286000A36B1A80A36B0233A363B4F83EC01FFAB4
:102870008CFC0CF1FF3C1FFA8CFCA4F83EC0E6E790
:10288000012384F8513003260FE03A4629462046BA
:10289000FFF7C2FC08B120236365636D2BB90123E8
:1028A00084F85130002600E00226002384F85030DE
:1028B000304603B0BDE8F0830226F9E710B50446C0
:1028C0000268136923F44053C1680B4313618368A2
:1028D0000269134342691A430168CB6823F4B05379
:1028E00023F00C031343CB600268536923F4407355
:1028F00081690B4353610268134B9A4220D0FFF762
:10290000F5FB024602EB820202EB820263689B0047
:10291000B2FBF3F20D48A0FB02314909642303FB2B
:1029200011231B013233A0FB03035B0903F0F00208
:1029300002EB011203F00F03216813448B6010BDFA
:10294000FFF7E4FB0246DDE7003801401F85EB514D
:102950002DE9F84305460F4616469946DDF82080D6
:102960002B681C6837EA04040CBF01240024B4421D
:102970002DD1B8F1FF3FF3D0B8F1000F05D0FEF72D
:102980000FFFA0EB09004045EAD92A6802F10C03C9
:1029900053E8003F23F4D0730C3242E800310029A1
:1029A000F3D12A6802F1140353E8003F23F0010336
:1029B000143242E800310029F3D1202385F8413058
:1029C00085F84230002385F84030032000E00020E5
:1029D000BDE8F88360B310B5044690F8413013B3F6
:1029E000242384F841302268D36823F40053D36051
:1029F0002046FFF763FF2268136923F490431361B5
:102A00002268536923F02A0353612268D36843F490
:102A10000053D36000206064202384F8413084F8A0
:102A20004230606310BD80F84030FEF783FDD7E789
:102A300001207047002831D010B5044690F841308D
:102A40003BB3242384F841302268D36823F4005335
:102A5000D3602046FFF732FF2268136923F49043C6
:102A600013612268536923F022035361226853697A
:102A700043F0080353612268D36843F40053D360E2
:102A800000206064202384F8413084F84230606381
:102A900010BD80F84030FEF74DFDD2E701207047B1
:102AA0002DE9F04182B01E4690F84130DBB2202B78
:102AB0004BD104460D46904600294AD00AB9012060
:102AC00044E000234364212380F84130FEF768FE90
:102AD0000746A4F82480A4F82680A368B3F5805F95
:102AE00002D04FF000080FE02369FBB14FF000085F
:102AF0000AE038F8023B2268C3F308035360E28C13
:102B000092B2013A92B2E284E38C9BB28BB100960E
:102B10003B46002280212046FFF71AFFD8B9002D3E
:102B2000E7D015F8012B23685A60E8E7A84600258E
:102B3000EAE700963B46002240212046FFF708FFC7
:102B400058B9202384F8413000E0022002B0BDE8EB
:102B5000F0810120FAE70320F8E70320F6E72DE9EA
:102B6000F04182B01E4690F84230DBB2202B53D1A8
:102B700004460D469046002952D00AB901204CE087
:102B800000234364222280F842200363FEF708FEFC
:102B90000746A4F82C80A4F82E80A368B3F5805FC4
:102BA00002D04FF0000817E0236913B14FF000087E
:102BB00012E0A84600250FE023685B68C3F3080312
:102BC00028F8023B03E023685B682B700135E28D37
:102BD00092B2013A92B2E285E38D9BB2BBB100960C
:102BE0003B46002220212046FFF7B2FED0B9002D3F
:102BF000E2D0A368B3F5805FE5D013B92369002B59
:102C0000E1D023685B6803F07F032B70DEE72023AD
:102C100084F84230002000E0022002B0BDE8F081DC
:102C20000120FAE70320F8E700B5864600200B46AE
:102C30000139C9B2A3B11EF801CB082303E04FEA62
:102C40005C0C013BDBB2002BF1D080EA0C0212F0ED
:102C5000010F4FEA5000F2D080F08C00C0B2EEE7D6
:102C60005DF804FBF0B583B0019143781BB90127EF
:102C7000384603B0F0BD054616469DF8041040687E
:102C800000F054F99DF80570B7B93C461CE0FF21EF
:102C9000686800F04BF930550134E4B2A742F6D829
:102CA000791EC9B23046FFF7BFFF3E4416F8013C1B
:102CB00083420ED10027DBE70024EFE7315D68682F
:102CC00000F034F90134E4B29DF80630A342F5D89F
:102CD000CEE70127CCE710B504460121406800F09B
:102CE00007F903E00121606800F002F9FF28F9D13B
:102CF00010BD000070B582B006460C460DF107020B
:102D0000144B1968FFF7AEFF0546012C04D0022CC6
:102D100006D0284602B070BD3046FFF7DCFFF6E76C
:102D2000337C5F2B0DD007D81F2B0DD03F2B0DD13F
:102D3000BC20FEF73BFDECE77F2B09D140F2EE20F3
:102D4000F7E740F27710F4E75E20F2E70020F0E7C3
:102D50000020EEE7C89E000870B584B0044601AAC2
:102D6000214B1968FFF77EFF064690BB9DF80630A1
:102D7000E3739DF80730A3739DF8083023749DF822
:102D800005109DF8042042EA0122104612F478450D
:102D900001D0504280B25F2B1ED008D81F2B0BD021
:102DA0003F2B1ED120F003004005400D06E07F2B95
:102DB00017D1C0F30A0001E000F4FF60FDF712FB39
:102DC0004FF07651FDF7A4F9606115B100F10040B4
:102DD0006061304604B070BD20F001004005400D38
:102DE000ECE7C0F30A00E9E7D09E000838B50546D5
:102DF0000C460A46054B1968FFF734FF28B92378BB
:102E0000EB736378AB73A3782B7438BDCC9E00084A
:102E100003780BB90120704710B50446406800F0F4
:102E2000A4F810B90123637010BD00236370012062
:102E3000FAE7000010B582B004466A46094B1968EB
:102E4000FFF710FF60B9034608E05A1C03F10901BF
:102E5000694411F8081C23441972D3B2052BF4D924
:102E600002B010BDD89E000800B583B00DF1070276
:102E7000034B1968FFF7F6FE03B05DF804FB00BFD3
:102E8000D49E000800234370416001230370704703
:102E900010B5044641600268134B9A4220D0FFF7F8
:102EA00025F9024602EB820202EB820263689B0074
:102EB000B2FBF3F20D48A0FB02314909642303FB86
:102EC00011231B013233A0FB03035B0903F0F00263
:102ED00002EB011203F00F03216813448B6010BD55
:102EE000FFF714F90246DDE7003801401F85EB517A
:102EF00010B582B00446FF238DF8073000238DF80B
:102F0000063009B98DF807300A2301220DF10701B7
:102F10002046FFF7C5FD0A2301220DF106012046D8
:102F2000FFF71DFE9DF8060002B010BD2DE9F0412F
:102F300007460E460024254606E0012303FA08F35F
:102F40002B43DDB20134E4B2072C0BD8A04646FA7D
:102F500004F101F001013846FFF7CAFFFF28ECD069
:102F60000023EBE72846BDE8F08110B582B00446A7
:102F7000F0238DF8073000238DF806304FF41651FA
:102F8000FFF786FF0A2301220DF107012046FFF714
:102F900087FD0A2301220DF106012046FFF7DFFD20
:102FA0004FF4E1312046FFF773FF9DF806209DF8AE
:102FB00007309A4202D0002002B010BD0120FBE78A
:102FC00030B583B00446164DEB6898476B69984757
:102FD0006B6A6BB1AB6A5BB1220C8DF80420220ADC
:102FE0008DF805208DF80640032101A898470BE0D5
:102FF0000B4D2B6AC4F3074098472B6AC4F3072094
:1030000098472B6AE0B29847054DEB69984704460C
:10301000AB6998472B699847204603B030BD00BF85
:103020001000002070B582B004460E46164DEB68C5
:1030300098476B69984744F00404AB6AA3B1220C2B
:103040008DF80420220A8DF805208DF806408DF8B1
:10305000076004210DEB010098470B4CA3699847CA
:103060002369984702B070BD2B6AC4F307409847A4
:103070002B6AC4F3072098472B6AE0B298472B6A63
:1030800030469847E9E700BF10000020F0B583B054
:1030900004460E4615461B4FFB6898477B699847C8
:1030A0007B6A93B1BB6A83B1220C8DF80420220A9B
:1030B0008DF805208DF80640032101A89847114B93
:1030C0005B6A29463046984715E00E4F3B6AC4F3C9
:1030D000074098473B6AC4F3072098473B6AE0B231
:1030E0009847002405E0074BDB69984730550134C9
:1030F000A4B2AC42F7D3034CA3699847236998471D
:1031000003B0F0BD10000020F0B583B004460E46B9
:1031100015461B4FFB6898477B69984744F00404A9
:10312000BB6AB3B1220C8DF80420220A8DF8052069
:103130008DF80640032101A89847114B9B6A294648
:10314000304698470E4CA36998472369984703B0C7
:10315000F0BD3B6AC4F3074098473B6AC4F30720BD
:1031600098473B6AE0B29847002405E0044B1B6A8D
:10317000305D98470134A4B2AC42F7D3E2E700BF18
:10318000100000202DE9F0410746002501E0A5428E
:1031900020D04FEA870808F101084FEAC80808F56F
:1031A00000563046FFF70CFF0402A4B208F504589D
:1031B0004046FFF705FF0444A4B2002CE7D0304698
:1031C000FFF7FEFE0502ADB24046FFF7F9FE0544EB
:1031D000ADB2DCE72846BDE8F0812DE9F0410746B5
:1031E000002501E0A54220D04FEA870808F1010838
:1031F0004FEAC80808F518563046FFF7E1FE04020A
:10320000A4B208F51C584046FFF7DAFE0444A4B205
:10321000002CE7D03046FFF7D3FE0502ADB24046A2
:10322000FFF7CEFE0544ADB2DCE72846BDE8F081ED
:1032300002B970472DE9F8430E461746840004F1A1
:1032400001094FEAC90909F510584046FFF7B8FED1
:103250000502ADB209F514594846FFF7B1FE054421
:10326000ADB2A01CC0003A46314600EB0520FFF786
:103270004BFF79198CB2C1F307214046FFF7D2FE0C
:10328000E1B24846FFF7CEFEBDE8F883082802D930
:103290004FF0FF30704770B5054684000134E400FC
:1032A00004F5807610213046FFF7BCFE3046FFF76C
:1032B00087FE0028FAD11F2104F50070FFF7B2FE47
:1032C0000123AB40DB439BB20A490A881A400A80BB
:1032D000094A11880B4013800023084A22F8153050
:1032E000074A535504F54070FFF76AFE0028F9D1EC
:1032F000012070BD2E0800202C0800201C08002092
:1033000014080020082800F294802DE9F04182B0D2
:1033100005460F4690461E46012963D04BB2002B4E
:1033200000F08A808B1EDBB2022B00F2888016F040
:10333000040F40F087801EB1012F60D0022F64D0AF
:103340002846FFF7A3FFAC000134E40026F00F018C
:1033500039432046FFF766FEB8F1000F0AD13C4A18
:10336000B2F8008008F101039BB213804FF6F072AF
:10337000934259D04FEA182104F58060FFF752FEBE
:103380005FFA88F104F5A060FFF74CFE04F5807742
:1033900001213846FFF746FE3846FFF711FE0028A8
:1033A000FAD10123AB40DB439BB22A490A881A4079
:1033B0000A8006F00106AE4032430A80264A118890
:1033C0000B4013800023254A22F81530244A535518
:1033D00004F54070FFF7F4FD0028F9D068B202B0A0
:1033E000BDE8F08104220DEB02014FF47060FFF79D
:1033F0004DFE019B002B9AD16FF00200EFE716F013
:10340000210F9DD16FF00500E9E716F0200F02D0E3
:1034100016F0800F19D016F0100F91D016F0800F13
:103420008ED16FF00500DAE7094B4FF440421A8065
:10343000A0E74FF0FF3070476FF00400CFE76FF068
:103440000400CCE76FF00500C9E76FF00500C6E7A0
:103450000C0000202E0800202C0800201C08002052
:103460001408002008282AD870B5054684000134C5
:10347000E4002046FFF7A4FD00F00F00012821D151
:1034800004F540763046FFF79BFD13281DD104F567
:10349000807402212046FFF7C5FD2046FFF790FD0E
:1034A0000028FAD13046FFF78BFD142801D1012006
:1034B00070BD2846FFF7EAFE6FF00300F8E74FF013
:1034C000FF3070476FF00400F2E76FF00200EFE7A3
:1034D00008287ED82DE9F84305468946144687001A
:1034E0000137FF003846FFF76BFD00F00F000128A1
:1034F00072D1002C73D007F540784046FFF760FD8D
:10350000172801D01C286DD1384B1B882B4113F094
:10351000010F19D007F500763046FFF751FD10F086
:10352000100F05D110F0080F18D10020BDE8F88366
:1035300010213046FFF776FD0123AB40DB431BB281
:103540002A4A11880B40138007F5F850FFF738FD21
:103550008602B6B2B4420FD826460DE02846FFF7E1
:1035600095FE6FF00C00E1E72846FFF78FFE6FF045
:103570000600DBE7B44214D22846FFF703FE0446F8
:103580004046FFF71DFD172801D01C28ECD1184B31
:103590001B882B4113F0010FECD0B442EAD200207B
:1035A000C4E7324649462846FFF742FE07F58077D2
:1035B00020213846FFF736FD3846FFF701FD002889
:1035C000FAD10123AB40094A11880B4313803046DE
:1035D000ACE74FF0FF3070476FF00400A6E76FF0E4
:1035E0000D00A3E76FF00600A0E700BF2C08002045
:1035F0002E080020082800F29F8070B50646154668
:103600000C2900F29C80DFE801F007111B253641F0
:103610009A5263686D778B0080000130C000FFF71D
:10362000CFFC00F0F0002870012070BD8000013058
:10363000C00000F5B050FFF7C3FC28700120F4E78C
:1036400080000130C00000F5A850FFF7B9FC2870D9
:103650000120EAE786000136F60006F59050FFF7F4
:10366000AFFC0402A4B206F59850FFF7A9FC04448D
:103670002C800120D9E780000130C00004222946B7
:1036800000F54060FFF702FD0120CEE7860001361D
:10369000F60006F58050FFF793FC0402A4B206F58D
:1036A0008850FFF78DFC04442C800120BDE7840086
:1036B0000134E4002046FFF783FC00F00F000128EE
:1036C00040D104F53C50FFF77BFC28800120ACE79B
:1036D000FFF758FD28800120A7E7FFF77EFD28802F
:1036E0000120A2E780000130C00000F54070FFF724
:1036F00067FC2870012098E780000130C000FFF7C8
:103700005FFC10F0010F05D1114B33F816302B8000
:1037100001208AE73046FFF760FD2880012084E71A
:1037200080000130C000FFF74BFC01280DD0094B91
:103730009B5D2B70012078E74FF0FF3070476FF0F2
:10374000010072E76FF004006FE76FF004006CE7B0
:103750001C0800201408002070477047704770470D
:103760000078704701707047002070477047000074
:1037700020B119B1044A506191617047024B034A6C
:103780005A61034A9A617047100000205D370008B3
:103790005F370008084B1B8813F4007FFAD020B174
:1037A00019B1054BD86119627047034B034ADA61BE
:1037B000034A1A62704700BF1000002069370008F2
:1037C0006D37000800B587B0062201A94FF41060DC
:1037D000FFF75CFC042205A94FF48070FFF756FC4C
:1037E000042204A94FF4A060FFF750FC042203A9AF
:1037F0004FF47060FFF74AFC80210020FFF712FCB5
:103800000020FFF7DDFB062201A94FF41060FFF74F
:103810007BFC042205A94FF48070FFF775FC04229D
:1038200004A94FF4A060FFF76FFC042203A94FF432
:103830007060FFF769FC07B05DF804FB70B50546E2
:103840000E46FFF7BFFFCDB100221346072B07DC62
:10385000E95C0A4452B2102A2FDC01335BB2F5E76F
:10386000002409E0A0000130C000295D00F5F850F7
:10387000FFF7D8FB013464B2072CF3DD5EB1002200
:103880001346072B09DCF15C0A4452B2102A17DCFC
:1038900001335BB2F5E700200EE0002409E0A00050
:1038A0000130C000315D00F5F050FFF7BBFB013483
:1038B00064B2072CF3DD002070BD4FF0FF30FBE752
:1038C0004FF0FF30F8E7000010B50446062201462D
:1038D0004FF41060FFF718FC042204F10E014FF4BE
:1038E0008070FFF711FC042204F10A014FF4A0607C
:1038F000FFF70AFC0422A11D4FF47060FFF704FCDF
:10390000A27C064B1A70E27C5A70227D9A70627D0E
:10391000DA70A27D024B1A7010BD00BF340800207F
:103920003008002010B50446062201464FF410600E
:10393000FFF7ACFB042204F10E014FF48070FFF797
:10394000A5FB042204F10A014FF4A060FFF79EFBDF
:103950000422A11D4FF47060FFF798FB064B1A7804
:10396000A2745A78E2749A782275DB786375034BF7
:103970001B78A37510BD00BF34080020300800205C
:103980002DE9F04F01F10B05162D064683B024D822
:10399000102900F2AA8000F0ABFA102518234FF08E
:1039A000020CB74F3B445C68A3F10802944200F05C
:1039B000198130466368E268A16823F00303CA6096
:1039C000234491605A68083442F001025A6000F0C2
:1039D00095FA204603B0BDE8F08F35F0070500F1F9
:1039E0008480A94200F2818000F082FAB5F5FC7F64
:1039F000C0F06F816B0A7CD0042B00F21B81AB09F5
:103A000003F1390C03F1380E4FEACC009C4F3844D7
:103A100044680838A04207D10DE0002AE16880F22E
:103A2000DB80884207D00C46636823F003035A1BEF
:103A30000F2AF2DDF446DFF84C823C69444500F081
:103A4000B980636823F0030EAEEB05030F2B00F380
:103A50004581002BC7E9048880F22F81BEF5007FE5
:103A6000786880F0C68001234FEADE014FEA5E1ECF
:103A7000194403FA0EF357F83120184307EBC1033A
:103A8000083BA260E360786047F83140D4600121D0
:103A90004FEAAC039940814232D8014206D12CF062
:103AA000030C490001420CF1040CFAD007EBCC0ADC
:103AB0005046E146D0F80CE00DE0DEF804207446F4
:103AC00022F00302531B0F2BDEF80CE000F3BF8043
:103AD000002B80F2E3807045EFD109F1010919F064
:103AE000030F00F10800E5D124E10C23336000242A
:103AF0006FE74FF400704FF0400C4FF03F0E85E73A
:103B0000BC68636823F00309A94503D3A9EB050347
:103B10000F2B51DC5C4B08201B6803F1100800F0F0
:103B20006FFC5A4A04EB0903009313688346013380
:103B3000A84405D008F1FF388044434203EA08084E
:103B40004146304600F0FEFBB0F1FF3F82464F4A4F
:103B500000F0E18004EB0903834200F2DA804C4B71
:103B60000BF1FF31186840448446186040F0008132
:103B70001AEA010F40F0FC80D7F808A0C84448F0CA
:103B80000102CAF804205446424B1968814238BFEA
:103B90001860414B1968814238BF186022F0030851
:103BA000A845A8EB050301D30F2B05DC304600F038
:103BB000A5F99CE778686AE7621943F0010345F0CC
:103BC000010565603046BA600834536000F096F92C
:103BD000204603B0BDE8F08FA2683046D160234490
:103BE0008A60EFE6DC68A3427FF4E3AE0CF1020CDE
:103BF00021E7BEF5206F4FEA5E22C0F08380142AD1
:103C000000F2178102F15C03DB005B32F918FB580C
:103C10000839994203D1F3E09B68994204D05A686D
:103C200022F003027245F7D8D968C4E902318C60EA
:103C3000DC602CE7142B71D9542B00F203812B0B81
:103C400003F16F0C03F16E0E4FEACC00DEE6611952
:103C5000304645F00105A668656043F00105C6F8E9
:103C60000CE0CEF80860C7E90411C1F80880C1F87B
:103C70000C804D60A35000F041F90834A9E600BF64
:103C80004800002050000020680800203C00002070
:103C9000380800206408002060080020224453688F
:103CA000304643F00103536054F8083FC3F80CE07A
:103CB000CEF8083000F022F98BE6A644DEF8043096
:103CC000304643F00103CEF8043000F017F9083411
:103CD0007FE64FEAD50C05F1080362E6621943F06E
:103CE000010145F0010565603046C7E90422C2F8CC
:103CF0000880C2F80C80516044F80E3000F0FEF8E5
:103D0000083466E64FEA9E1202F13903DB003832CE
:103D10007CE7BC4224D0BC6862683FE703F15C0CDE
:103D200003F15B0E4FEACC0070E65AF808395345B0
:103D300040F0D9801CF0030F0CF1FF3CF5D17B68FB
:103D400023EA01037B60490099423FF6D9AE19B9D5
:103D5000D6E6490009F104091942FAD0CC46A5E695
:103D6000624B0BF1FF31186808EB000CC3F800C080
:103D70001068013071D004EB0902AAEB0202624420
:103D80001A601AF00702CDE9002341D0C2F10802FF
:103D90009244D04408EA01005A44121A02EA010B84
:103DA0005946304600F0CEFA421C019B72D0A0EB7F
:103DB0000A0000EB0B08186848F001025844BC42A6
:103DC000C7F808A01860CAF804203FF4DCAEB9F1C7
:103DD0000F0F45D94FF0050C6168A9F10C0222F0D4
:103DE000070201F00101114361600F2A04EB020197
:103DF000C1F804C0C1F808C054D8DAF80420C2E6FB
:103E00004FF0010E92100EFA02F2104378600CE7A8
:103E10000AEB08020A40ABEB020202EA010B594628
:103E2000304600F08FFA431C019BC0D1DDF800B092
:103E3000C1E7542A18D84FEA1E3202F16F03DB00A3
:103E40006E32E3E6B3F5AA7F18D8EB0B03F1780CDA
:103E500003F1770E4FEACC00D8E5C2F800A090E756
:103E60000123CAF80430A1E6B2F5AA7F25D84FEAAB
:103E7000DE3202F17803DB007732C7E640F25452BB
:103E8000934225D8AB0C03F17D0C03F17C0E4FEA75
:103E9000CC00BBE5009A4FF0000B083A9044A8EB29
:103EA0000A0888E7304604F10801009300F050FB4F
:103EB000009BD7F808A018689FE740F254539A4235
:103EC0000DD84FEA9E4202F17D03DB007C329DE675
:103ED0004FF47E704FF07F0C4FF07E0E96E54FF45E
:103EE0007E737E2292E67B682DE700BF38080020B3
:103EF000014800F081BA00BFAC090020014800F081
:103F00007DBA00BFAC090020024A0349034800F013
:103F1000C9B800BF50040020997300086004002055
:103F20000C4B416810B59942044601D003F034FAB5
:103F3000A168094B994202D0204603F02DFAE168AE
:103F4000064B994204D02046BDE8104003F024BA45
:103F500010BD00BF6C080020D40800203C090020E0
:103F60002DE9F84300250423304C314A3149DFF86C
:103F7000C890DFF8C880324F324E116004F15C0007
:103F800029460822C4E90335C4E90055C4E90555AA
:103F9000A560656600F012F904F15800C4E907490C
:103FA000C4E90987E66200F023FA274B2946082274
:103FB00004F1C4006367C4E91A55C4E91E552567B6
:103FC000C4F8CC50C4F8805000F0F8F804F168034D
:103FD00004F1C000C4F88430C4E92298C4E924760E
:103FE00000F006FA194B294604F596700822C4F829
:103FF000DC30C4E93455C4E93855C4F8D850C4F8A5
:104000003451C4F8E85000F0D9F804F1D003C4E901
:104010003D87C4F8F09004F59470C4F8FC60C4F8CF
:10402000EC30BDE8F84300F0E3B900BF6C080020B5
:10403000A4090020093F00082D4100085141000853
:1040400091410008B541000809000100120002007A
:1040500010B504460A4800F0CFF9636B23B9094B49
:10406000094A1B68626323B1BDE81040044800F0B0
:10407000C5B9FFF775FFBDE81040014800F0BEB9B3
:10408000B4090020A4090020213F0008014800F0E5
:10409000B3B900BFB4090020014800F0AFB900BFB8
:1040A000B40900202DE9F8434FF0000980460F467F
:1040B0001646D6E90154013D10D4A389013D012BD8
:1040C00008D9B4F90E30013304D021464046B84730
:1040D00049EA00096B1C04F16804EED13668002E31
:1040E000E7D14846BDE8F8830EB430B504466FF01A
:1040F00000459CB00B4A1FAB0B49059253F8042BAB
:10410000086802A9CDE9013404950795069400F0EA
:104110001DFB0022029B1A701CB0BDE8304003B0AA
:10412000704700BF0802FFFF5C04002010B50C467A
:10413000B1F90E1000F0F0F8002803DB236D034402
:10414000236510BDA38923F48053A38110BD00BF54
:104150002DE9F0410C46B1F90C101F46CB05054680
:1041600016460BD421F48051A1813B4632462846A5
:10417000B4F90E10BDE8F04100F0F6B8B4F90E1035
:104180000223002200F0B2F8B4F90C10EAE700BFF5
:1041900010B50C46B1F90E1000F0A8F8B4F90C30C7
:1041A000421C0EBF23F4805343F480532065A38147
:1041B00010BD00BFB1F90E1000F086B870B58607CB
:1041C00047D0541E002A3ED00346CAB201E0013C4B
:1041D00039D303F8012B9D07F9D1032C2CD9CDB28B
:1041E00005EB05250F2C1A4605EB054534D9A4F13E
:1041F000100C2CF00F0603F1100EB6444FEA1C1CF5
:10420000156055609560D56010327245F8D10CF19B
:10421000010214F00C0F03EB021204F00F0C13D088
:10422000ACF1040323F003030433134442F8045BAA
:104230009A42FBD10CF003042CB1C9B21C4403F820
:10424000011B9C42FBD170BD64461346002CF4D187
:10425000F9E703461446C0E7A446E1E740EA010354
:104260009B0710B524D1032A22D98E468446DEF856
:1042700000407146A4F1013323EA040313F0803FA8
:104280000EF1040E15D1043A032A4CF8044BEED873
:10429000714601F1FF3E52B163461EF8011F541EE4
:1042A00003F8011B41B122469C46002AF4D110BDFF
:1042B000844601F1FF3EEEE79444002CF7D003F86A
:1042C000011B6345FBD110BD002238B5064D0446E5
:1042D00008462A60FDF7C8F9431C00D038BD2B689A
:1042E000002BFBD0236038BDA809002038B50C4650
:1042F000114600228446074D20462A601A4664462D
:10430000FDF7BCF9431C00D038BD2B68002BFBD057
:10431000236038BDA809002038B50C46114600229C
:104320008446074D20462A601A466446FDF77EF90A
:10433000431C00D038BD2B68002BFBD0236038BD58
:10434000A8090020002238B5064D044608462A6018
:10435000FDF796F9431C00D038BD2B68002BFBD02D
:10436000236038BDA809002038B50C46114600224C
:104370008446074D20462A601A466446FDF766F9D2
:10438000431C00D038BD2B68002BFBD0236038BD08
:10439000A8090020014B1868704700BF5C0400208A
:1043A00070B50F4B0F4DAB42A3EB050607D00024B1
:1043B000B61055F8043B01349847A642F9D805F0E9
:1043C000D1FC094D094B5E1BAB424FEAA60606D055
:1043D000002455F8043B01349847A642F9D870BD33
:1043E000E0A20008E0A20008E0A20008E8A200089D
:1043F000704700BF704700BF704700BF704700BFE5
:10440000082802D14FF48050704708B5FFF7C2FF6B
:10441000162203464FF0FF301A6008BD20F003015A
:1044200010F00300C0F1000051F8043B00F1040C4F
:104430004FEACC0C6FF000021CBF22FA0CF21343BF
:104440004FF0010C4CEA0C2C4CEA0C4CA3EB0C0288
:1044500022EA030212EACC1204BF51F8043B0430F2
:10446000F4D0C2F1000102EA0102B2FA82F2C2F112
:104470001F0200EBD2007047024B13B1024800F05C
:1044800005B8704700000000197C000800230146B1
:104490001A46184603F058BC2DE9F8430646082092
:1044A0008946FFF7ADFF0546DFF898803046FFF7F5
:1044B0001FFDD8F808305F6827F00307A7F1110443
:1044C000A4EB09042C44B4FBF5F4013C05FB04F413
:1044D000A54208DC00213046FFF734FFD8F8083049
:1044E0003B44984205D03046FFF708FD0020BDE868
:1044F000F88330466142FFF725FF01300FD0124AA2
:10450000D8F808303F1B47F001075F60136830465A
:104510001B1B1360FFF7F2FC0120BDE8F8830021AC
:104520003046FFF70FFFD8F80820831A0F2BDADD8B
:1045300043F001035360054B03491B68C01A086030
:10454000D1E700BF48000020380800203C000020D0
:1045500000297CD0F8B50C460646FFF7C9FC54F894
:10456000043C774FA4F1080523F001016818D7F83F
:1045700008C04268844522F0030200F08380DB0714
:10458000426000EB020C33D454F8084CDCF80430E1
:104590002D1B2144AC6807F1080C644503F00103AE
:1045A00064D0D5F80CE0C4F80CE0CEF80840002B3D
:1045B00000F0818041F001036B600160B1F5007F84
:1045C00022D20122CB0849098A40796801330A4383
:1045D0007A6057F8331007EBC302083AC5E90212B4
:1045E00047F83350CD603046BDE8F840FFF786BC51
:1045F000DCF80430DB072BD541F00103B1F5007F77
:1046000044F8043C0160DCD3B1F5206F4FEA51233C
:1046100053D28B0903F1390003F13802C300F818B3
:10462000FB580838984203D163E09B68984204D055
:104630005A6822F003028A42F7D8D868C5E90230E6
:1046400085603046DD60BDE8F840FFF757BC704735
:10465000114407F1080C836863453FD0C268DA60F3
:10466000936041F001036B606950A7E7002B61D1B3
:104670000A44D0E90213CB60996042F001036B60F9
:10468000AA50B0E70A44D90707D454F8083CED1AF9
:104690001A44D5E90213CB60996042F001036B60C4
:1046A000284BBD601B6893429DD8274B3046196844
:1046B000FFF7F2FE97E71144CDE7142B08D9542BEE
:1046C0001FD80B0B03F16F0003F16E02C300A6E7C6
:1046D00003F15C0003F15B02C300A0E741F00103BA
:1046E0003D617D61C5F808C0C5F80CC06B606950BC
:1046F00079E70121921001FA02F279680A437A609F
:104700009CE7B3F5AA7F06D8CB0B03F1780003F141
:104710007702C30083E740F25452934206D88B0CD1
:1047200003F17D0003F17C02C30078E74FF47E7350
:104730007E2274E741F001036B60016053E700BF24
:104740004800002040000020680800202DE9F04FBC
:10475000DDB00C4691460C910E93834603F058FA57
:10476000036818461A93FFF759FE034608220021F2
:104770002CA81893FFF722FDA3891A0603D52369F5
:10478000002B00F08F87002300249E46CDE93133B3
:10479000002333AA9046CDE91434CDE91CEE3092C3
:1047A000CDF864E0CDF86CE0CDF85CE0CDF828E021
:1047B000CDF848E0CDF820B0CDF81890069E089DC1
:1047C0006F4B2CAFD3F8E44003F01CFA324603469B
:1047D00028A928460097A047002800F09F80C0F233
:1047E0009580289B252B01D00644E9E7069B0546CA
:1047F000F71A40F0978000224FF0FF33914609935B
:104800007378741C8DF897200B921F460134A7F122
:1048100020035A2B00F2B680DFE813F0F202B40056
:10482000B400EE02B400B400B400CE02B400B40090
:104830006A004302B4003F020003B400FC025B00C4
:104840005B005B005B005B005B005B005B005B0090
:10485000B400B400B400B400B400B400B400370134
:10486000B400C3011A03370137013701B400B400A3
:10487000B400B400CA02B400B4004802B400B400EA
:10488000B400E601B400B802B400B4000507B400F7
:10489000B400B400B400B400B400B400B4003701F4
:1048A000B400C3011702370137013701790217023B
:1048B0007400B4009202B400830227079C027400C3
:1048C000B400E60172000107B400B4002A07B40086
:1048D00072000022A7F1300314F8017B02EB820280
:1048E00003EB4202A7F13003092BF5D90B928EE7B7
:1048F0000E9B53F8042B002A0B920E93C0F2CA8130
:10490000237882E7237849F020097EE708220021F6
:104910002CA8FFF753FC0120064451E7069B0546EF
:10492000F71A12D0069BC8E90037329B3B443293FA
:10493000319B0133072B319318DC08F108080A9BDF
:104940003B440A93002D7FF456AF329BDDF820B034
:10495000002B41F0F6810C9B9B8903F04003002B58
:1049600041F0B2830A985DB0BDE8F08F0C990898C9
:1049700030AA04F09FFF0028EDD10DF1CC08DEE74E
:10498000840500200F94002FDFD04FF0010B002290
:1049900043AB8DF80C71CDF81CB00693CDE9102215
:1049A0008DF897200D920992139219F0020302D00C
:1049B00007990231079119F08404329D05D10B99B2
:1049C00007980E1A002E00F3A88082B10122C8F8C1
:1049D0000420319A013501320DF19701072A3295F1
:1049E0003192C8F8001000F3178408F108087BB171
:1049F0000223C8F80430319B0235013326AA072B65
:104A000032953193C8F8002000F3F98308F10808C3
:104A1000802C00F0BB82099BA3EB0B06002E00F359
:104A2000FB8219F4807F40F02B82069B5D44C8F81E
:104A30000030319BC8F804B00133072B3295319315
:104A400000F3618308F1080819F0040F05D00B9BEF
:104A5000079A9C1A002C00F3EE83DDE90A320799CD
:104A60008A42ACBF9B185B180A93002D40F00C8360
:104A7000002331930D9B1BB10D990898FFF768FD3A
:104A80000DF1CC080F9B069398E60E9B0F9407330D
:104A900023F00703F3E802450E9325F0004321932A
:104AA0002094DDE920AB4FF0FF3250465946B24B1F
:104AB000CDE91445FCF7DAF9002840F057854FF0AE
:104AC000FF3250465946AC4BFCF7B2F9002840F093
:104AD0004D850022002320462946FCF79FF9002837
:104AE00041F04F809DF8972000214FF0030BA34C1D
:104AF000A34B29F080090D91CDF81CB0472FC8BFFA
:104B00001C46CDE91011069409911391002A3FF437
:104B10004CAF079B0133079347E7102E319A41F3BF
:104B20007982DFF860C241462846B846CDE91E3496
:104B30004FF0100A6746089D0C9CCDF858C004E061
:104B4000103E102E01F1080115DD01321030072A48
:104B5000C1E9007ACDE93120F2DD2146284630AAAC
:104B600004F0A8FE002840F0F686DDE93120103E72
:104B7000102E33A9E9DC4746DDE91E348846054698
:104B8000013216993544072ACDE93125C8F80010BD
:104B9000C8F8046000F3CE869DF8972008F1080855
:104BA00013E70E9B432F0F9403F1040503D019F074
:104BB000100F00F06185082200212EA8FFF7FEFAF1
:104BC0000E9A43AC2146126808982EAB04F040FEC2
:104BD000B0F1FF3F834601F0728220EAE073079351
:104BE00000220E950694D9E600230E9E8DF897308C
:104BF00056F8043B0F940693002B00F06285532F68
:104C000000F0C38619F01003109340F0BE86099B94
:104C10005C1C01F0A1801A461099069803F010F868
:104C20000D90002801F018830D9B069A7327A3EBC3
:104C3000020B109B2BEAEB719DF897200E960993BF
:104C40000791139311930D9360E719F0200F0F94C0
:104C500000F005810E9B073323F0070318465968BF
:104C600050F8083B0A460E900029C0F23184099999
:104C7000013100F0B48253EA020129F0800B40F0C8
:104C8000AF82099A002A40F0B0825CABD946069305
:104C900093466EE10B9B5B420B93237849F004092A
:104CA000B3E52B238DF897302378AEE50F9449F0C8
:104CB000100919F0200200F0E7830E9B073323F060
:104CC000070319465A6851F8083B0E91002129F450
:104CD000806B0020099C8DF89700601C00F02C81EF
:104CE00053EA02002BF0800940F02581002C40F0AF
:104CF0003486002940F0F6831BF0010B00F0198484
:104D000030238DF86F310DF26F13069331E1237864
:104D1000682B03BF637849F40079013449F04009F6
:104D200073E519F0200F0F9400F00E840E9B0A9A81
:104D30001B681A60D2175A600E9B04330E93A1E6CB
:104D400023786C2B03BF637849F02009013449F0C4
:104D500010095AE547F630030E9A0B48ADF8983023
:104D600052F8043B02210E92782700220F9449F05A
:104D7000020B1990ADE700BFFFFFEF7FE09F000837
:104D8000E49F000834A00008F09F00080F9449F049
:104D9000100B1BF0200200F086830E9B01210733CD
:104DA00023F0070318465A6850F8083B0E9090E726
:104DB000237849F0080928E5089D284602F028FFD5
:104DC000436818461C93FFF729FB034628461D93AA
:104DD0001D4602F01DFF83681793002D3FF490AD30
:104DE000179A2378002A3FF410AD1278002A3FF476
:104DF0000CAD49F4806908E5237849F0010904E520
:104E00009DF897202378002A7FF4FFAC20228DF8AC
:104E10009720FAE4237849F08009F6E4224612F854
:104E2000017B2A2F01F02782A7F13003092B1446BA
:104E300098BF002201F2F28014F8017B02EB82029B
:104E400003EB4202A7F13003092BF5D90992DEE406
:104E500049F0100919F0200F0F947FF4FBAE0E9A61
:104E600019F0100F52F8043B0E9240F0698319F0CC
:104E7000400F00F0618343F3C03211461BB2F3E6EA
:104E8000652F40F34F81DDE9140100220023FBF779
:104E9000BBFF002800F00C820123C8F80430319BCE
:104EA0009E4A01330135072B32953193C8F8002013
:104EB00000F35E8508F10808279B129A934280F25E
:104EC0003383189B1A9A1D44C8E90023319B3295FD
:104ED0000133072B319300F3D98308F10808129BA3
:104EE0005C1E002C7FF7B0AD102C319B40F3A385E6
:104EF0008B4F1026DDF820B0DDF830A0169705E0C6
:104F000008F10808103C102C40F397850133103548
:104F1000072BC8E90076CDE93135F1DD5146584619
:104F200030AA04F0C7FC002840F09382DDE9313557
:104F30000DF1CC08E6E7CB46012900F051810229AA
:104F400000F039815CAC03F00701DB0843EA4273EF
:104F5000D208303153EA0205204604F8011DF2D18F
:104F60001BF0010F069440F025825CABD946A3EB01
:104F7000040B099A00235A45B8BF5A46CDE91033AD
:104F800007920D939DF897201393BFE50B9B079A0B
:104F90009E1A002E7FF73FAD102E319B41F3838088
:104FA0005F484246294610240546DDF820A0DDF87A
:104FB0003080169004E0103E102E02F1080215DD3C
:104FC00001331031072BC2E90054CDE93131F2DD54
:104FD0004146504630AA04F06DFC002840F0278579
:104FE000DDE93131103E102E33AAE9DC90460D4642
:104FF0000133169A3544072BCDE93135C8F8002026
:10500000C8F8046000F33B85099B08F10808A3EB8E
:105010000B06002E7FF705AD414A102E319B1692EC
:1050200023DD2A464FF0100A089C0C9D04E0103E38
:10503000102E08F1080817DD013339491032072B0B
:10504000C8E9001ACDE93132F1DD2946204630AAFF
:1050500004F030FC002840F0FB81DDE93132103EE5
:10506000102E0DF1CC08E7DC15460133169A3544B5
:10507000072BCDE93135C8F80020C8F8046000F3EB
:10508000F68108F10808CCE40C99089830AA04F0DD
:1050900011FC00283FF4ECACDDF820B0D9E101238D
:1050A000C8F80430319B1D4901330135072B329577
:1050B0003193C8F8001000F3798508F10808002A38
:1050C00040F0F084129A09F0010313433FF4BCACA2
:1050D000189B1A9A1D44C8E90023319B329501336D
:1050E000072B319300F3638608F10808069A013311
:1050F000C8F80020129A072B1544CDE93135C8F8BD
:1051000004207FF79FAC0C99089830AA04F0D2FBDA
:105110000028C1D1329D0DF1CC0895E420A00008F3
:1051200024A00008129B319E012B069B05F101056E
:10513000C8F800304FF0010306F10106CDE93165F2
:1051400008F10807C8F8043040F34281072E00F345
:10515000CE81189B01361A9A1D44072EC7E90023F9
:10516000CDE9316500F3CF810837129B0022DDE9DC
:10517000140103F1FF380023FBF746FE002840F03E
:105180003A81069C013601344544072ECDE931654C
:105190003C60C7F8048000F3228108371B9B01366E
:1051A0001D447B60072E2AABCDE931653B60AADC4C
:1051B00007F1080848E4199C5CA903F00F00205C83
:1051C0001B0943EA0273120901F8010D53EA0200B8
:1051D000F3D15CABD9460691A3EB010BC9E6CB46F4
:1051E0000A2B72F1000180F0438330338DF86F3168
:1051F0000DF26F13D94606934FF0010BB9E60C99E7
:10520000089830AA04F056FB00287FF445AF329D81
:105210000DF1CC08FFF7FCBB0C99089830AA169347
:1052200004F048FB00287FF437AF329D169B0DF148
:10523000CC08FFF7DCBB102C319B40F32687B84F1E
:105240001026DDF82090DDF830A0169704E0103C21
:10525000102C08F1080816DD01331035072BC8E9BA
:105260000076CDE93135F2DD5146484630AA04F0EA
:1052700021FB002840F0DD83DDE93135103C102CA6
:105280000DF1CC08E8DC0133169A2544072BC8E958
:105290000024CDE931357FF7E0AB0C99089830AAAE
:1052A00004F008FB00287FF4F7AE329DFFF7D5BB72
:1052B000279A002A7FF7F3AE109F129B069A9F420F
:1052C000A8BF1F46002F02EB030B0BDD319B3D44B3
:1052D0000133072BC8E900273295319300F3368656
:1052E00008F10808109E002FA8BFF61B002E00F33F
:1052F000F981DDF818A0109B19F4806F9A4440F0F2
:105300001982279C129B9C4203DB19F0010F00F0CD
:105310006A84189B1A9A1D44C8E90023319B329570
:105320000133072B319300F3678608F10808129BBD
:10533000ABEB0A061C1BA642A8BF2646002E0DDDBD
:10534000319B35440133072BC8F800A0C8F804602E
:105350003295319300F36D8608F10808002EA8BF3E
:10536000A41B002C7FF770AB102C319B40F36383A0
:105370006C4F1026DDF820B0DDF830A0169705E060
:1053800008F10808103C102C40F357830133103506
:10539000072BC8E90076CDE93135F1DD5146584695
:1053A00030AA04F087FA002853D1DDE931350DF138
:1053B000CC08E7E7302900F04E833023069A023804
:1053C00002F8013C5CABD9460690A3EB000BD0E59C
:1053D00019F0010F7FF4BAAE072E7FF7DFAE0C99FC
:1053E000089830AA04F066FA00287FF455AEDDE98B
:1053F000316533AFD2E6129B012B7FF7CFAE112B75
:1054000040F36A87474BCDF8189010249946DDF891
:1054100020A0DDF830B0169306E00837A8F1100898
:10542000B8F1100F40F3728301361035072EC7E92B
:105430000094CDE93165F0DD5946504630AA04F0BC
:1054400039FA002840F0F382DDE9316533AFE5E752
:10545000A3460D9B002B3FF47EAA58460D99FFF7FB
:1054600077F80C9B9B8903F04003FFF778BA0C99FF
:10547000089830AA04F01EFA00287FF40DAE329D81
:105480000DF1CC08FFF7CDBA0E9951F8043B0E91FF
:1054900019F010017FF41AAC19F0400000F04A83B3
:1054A0000A469BB212E40E9951F8043B0E911BF090
:1054B00010010BD11BF0400003D00A469BB2012122
:1054C00007E41BF400721CBF0246DBB2012100E4BA
:1054D0005B42CB464FF02D004FF0010162EB4202E0
:1054E000FFF7F8BB5CABDDF824B0069341E50C99FF
:1054F000089830AA04F0DEF900287FF4CDADDDE98C
:10550000316533AF25E60C99089830AA04F0D2F93A
:1055100000287FF4C1ADDDE9316533AF25E600BF7A
:1055200034A0000824A0000819F0010F3FF48CAA51
:10553000C7E45CAB06931CE519F4007F40F062837E
:10554000DA171146FFF790BB19F0100F40F0A48254
:1055500019F0400F40F0508319F4007F00F09C8256
:105560000E9B0A9A1B681A70FFF7E6BBDDE914016F
:1055700002460B46FBF77AFC002840F04286612F7A
:1055800000F0FA84412F00F06485099B013300F09C
:105590001C8427F02003472B04D1099B002B08BF54
:1055A0000123099349F48070DDE91412002A4FF0B9
:1055B00000031690CDF84490C0F21485CDE9221274
:1055C0001E930D93A7F14103252B00F22383DFE8FF
:1055D00013F0070421032103210300040404210321
:1055E000210321032103210321032103210321039B
:1055F000210321032103210321032103210321038B
:10560000210321032103210321032103210321037A
:105610002103210321032103210300040404CB46B9
:105620000F94FFF7B6BBBE4B0F94199319F02002ED
:1056300000F004810E9B073323F0070319465A68D4
:1056400051F8083B0E9119F0010F09D053EA0201FD
:1056500006D030218DF8997049F002098DF8981024
:10566000022129F4806BFFF734BB0F94FFF721BBB5
:10567000AC4B0F941993D9E70E9B43AC1B688DF884
:105680000C3101239B460793FFF7AABA0C9908989F
:1056900030AA04F00FF900287FF4FEAC329D0DF122
:1056A000CC081CE440215846FEF76AF90C9B1860B0
:1056B0001861002800F01C8640230C9A5361FFF704
:1056C00062B8099B069A062B28BF062396489B467C
:1056D000CDE9102207930E9609920D92069013922F
:1056E000FFF714BA102E319B40F3E1858F492A460B
:1056F00010270D46089CDDF830A0169105E008F152
:105700000808103E102E40F32B8201331032072B75
:10571000C8E90057CDE93132F1DD5146204630AAC3
:1057200004F0C8F800287FF493AEDDE931320DF1C2
:10573000CC08E6E7119B42462946CDF818B05546FD
:10574000CDF82490794FDDF84C90DDF87480DDF8C9
:105750005CA0DDF820B083B3B9F1000F00F0028146
:1057600009F1FF3931981C9B013041440728C2E9F7
:1057700000383291319070DC0832069B9AF80000B4
:105780005E1B8642A8BF0646002E0CDD31983144D0
:1057900001300728C2E900563291319000F362814E
:1057A0009AF800000832002EB4BF0446841B002C77
:1057B00013DC0544119B002BCED1B9F1000FCFD1E2
:1057C000CDF85CA0AA46DDF818B09046DA450D4643
:1057D00028BFDA46DDF8249093E5102CC8BF3E467A
:1057E000319806DC00F044BD103C102C02F1080298
:1057F00016DD1023013010310728CDE93101176083
:105800005360F1DD58460C9930AA04F053F8002893
:105810007FF41FAEDDE93101103C102C33AAE8DC27
:10582000013021440728CDE931011660546000F3AE
:105830007F839AF8000008320544BBE70E9951F8BF
:10584000043B0E9119F010017FF4FDAE19F04000F9
:1058500000F06A810A469BB2F5E658460C9930AAD8
:1058600004F028F800287FF4F4AD329933AA84E7D5
:105870000BF48061CDE9067B4FF0000E4FF0CC3A7F
:1058800005240F46DFF8A8900DF5B87CCDF83480DC
:1058900006E00A2B72F1000235D343462A46B4468D
:1058A000991841F10001A9FB010525F0030000EB67
:1058B0009500091A581A0AFB00F562F1000BA0FBCB
:1058C000098009FB0B5508F0010B0544ABFB040BE9
:1058D00040184FEA5808303048EAC5780EF1010EFA
:1058E0000CF1FF360CF8010C6D08002FD1D0179980
:1058F00009788E45CDD1BEF1FF0FCAD00A2B72F1C7
:10590000000280F04381DDE9067B5CABD946DDF81F
:105910003480CDF848E00696A3EB060BFFF729BBD1
:1059200004A00008F09F000818A0000824A00008A8
:10593000CDCCCCCC0C99089830AA169303F0BAFFC2
:1059400000287FF4A9AB9DF89720329D169B0DF19E
:10595000CC08FFF73AB8AB467BE50129CB467FF48C
:10596000EEAA42E4119B0AF1FF3A013B1193F9E6DA
:105970000C99089830AA03F09DFF00287FF48CABA7
:10598000329D0DF1CC08FFF797BA069B2EAC08228A
:10599000002120462993FEF711FCDDF824A0BAF17E
:1059A000FF3F00F0CE8000250797AB46089F0DE033
:1059B0002346384643A903F04BFF431C584400F0EC
:1059C0007E83504507DC00F035848346299B5A5975
:1059D0000435002AECD1079FBBF1000F00F0F480E2
:1059E000BBF1630F00F3CA8100230D9343AB069311
:1059F000082200212046FEF7E1FB5B460699089845
:105A0000009429AA03F04AFF834540F068840023EC
:105A10002BEAEB720792069ACDE9103302F80B30AD
:105A20009DF897200E9609931393FFF76FB8D3460E
:105A30000FE5CB460DE5764A1692169A01332544BA
:105A4000072BC8F80020C8F80440CDE931357EF7AF
:105A5000F9AFFFF758BB069A5CABD946A3EB020B34
:105A6000FFF787BA58460C9930AA03F023FF0028A5
:105A70007FF4EFAC9AF80000329933AA93E60C99C0
:105A8000089830AA03F016FF00287FF405AB329D7A
:105A90000DF1CC08FEF7BFBF0E9B0A9A1B681A6077
:105AA000FFF74AB9189B1A991D44C8E90013319BA6
:105AB00032950133072B319300F3798108F10808FF
:105AC000002ABFF613AB5642103280F20283504CCC
:105AD0001027169405E008F10808103E102E40F338
